{
  "contractName": "ERC165",
  "abi": [
    {
      "inputs": [],
      "stateMutability": "nonpayable",
      "type": "constructor"
    },
    {
      "inputs": [
        {
          "internalType": "bytes4",
          "name": "",
          "type": "bytes4"
        }
      ],
      "name": "_suportedInterfaces",
      "outputs": [
        {
          "internalType": "bool",
          "name": "",
          "type": "bool"
        }
      ],
      "stateMutability": "view",
      "type": "function",
      "constant": true
    },
    {
      "inputs": [
        {
          "internalType": "bytes4",
          "name": "interfaceId",
          "type": "bytes4"
        }
      ],
      "name": "supportsInterface",
      "outputs": [
        {
          "internalType": "bool",
          "name": "",
          "type": "bool"
        }
      ],
      "stateMutability": "view",
      "type": "function",
      "constant": true
    },
    {
      "inputs": [
        {
          "internalType": "bytes4",
          "name": "interfaceId",
          "type": "bytes4"
        }
      ],
      "name": "_registerInterface",
      "outputs": [],
      "stateMutability": "nonpayable",
      "type": "function"
    }
  ],
  "bytecode": "0x608060405234801561001057600080fd5b506100627f068417d99438efa57c62b8a2f5c6aa9edc2f5916afbf754b62df6d6bc528f1637f01ffc9a7a5cef8baa21ed3c5c0d7e23accb804b619e9333b597f47a0d84076e21861006760201b60201c565b6101b8565b63ffffffff60e01b817bffffffffffffffffffffffffffffffffffffffffffffffffffffffff1916036100cf576040517f08c379a00000000000000000000000000000000000000000000000000000000081526004016100c690610198565b60405180910390fd5b6001600080837bffffffffffffffffffffffffffffffffffffffffffffffffffffffff19167bffffffffffffffffffffffffffffffffffffffffffffffffffffffff1916815260200190815260200160002060006101000a81548160ff02191690831515021790555050565b600082825260208201905092915050565b7f4552433136353a20496e76616c696420496e7465726661636500000000000000600082015250565b600061018260198361013b565b915061018d8261014c565b602082019050919050565b600060208201905081810360008301526101b181610175565b9050919050565b610390806101c76000396000f3fe608060405234801561001057600080fd5b50600436106100415760003560e01c806301ffc9a714610046578063068417d91461007657806350ee2e5114610092575b600080fd5b610060600480360381019061005b919061027a565b6100c2565b60405161006d91906102c2565b60405180910390f35b610090600480360381019061008b919061027a565b610129565b005b6100ac60048036038101906100a7919061027a565b6101fd565b6040516100b991906102c2565b60405180910390f35b6000806000837bffffffffffffffffffffffffffffffffffffffffffffffffffffffff19167bffffffffffffffffffffffffffffffffffffffffffffffffffffffff1916815260200190815260200160002060009054906101000a900460ff169050919050565b63ffffffff60e01b817bffffffffffffffffffffffffffffffffffffffffffffffffffffffff191603610191576040517f08c379a00000000000000000000000000000000000000000000000000000000081526004016101889061033a565b60405180910390fd5b6001600080837bffffffffffffffffffffffffffffffffffffffffffffffffffffffff19167bffffffffffffffffffffffffffffffffffffffffffffffffffffffff1916815260200190815260200160002060006101000a81548160ff02191690831515021790555050565b60006020528060005260406000206000915054906101000a900460ff1681565b600080fd5b60007fffffffff0000000000000000000000000000000000000000000000000000000082169050919050565b61025781610222565b811461026257600080fd5b50565b6000813590506102748161024e565b92915050565b6000602082840312156102905761028f61021d565b5b600061029e84828501610265565b91505092915050565b60008115159050919050565b6102bc816102a7565b82525050565b60006020820190506102d760008301846102b3565b92915050565b600082825260208201905092915050565b7f4552433136353a20496e76616c696420496e7465726661636500000000000000600082015250565b60006103246019836102dd565b915061032f826102ee565b602082019050919050565b6000602082019050818103600083015261035381610317565b905091905056fea2646970667358221220a819b4be7a297938b9f844e9b59d075cd2748f2a77676e5298a5d828b8c6f8bf64736f6c634300080f0033",
  "immutableReferences": {},
  "source": "// SPDX-License-Identifier: MIT\r\npragma solidity 0.8.15;\r\n\r\nimport './interfaces/IERC165.sol';\r\n\r\n// em uma herana, precisamos implementar o mtodo da interface, caso contrrio precisariamos declarar 'abstract' no contrato\r\ncontract ERC165 is IERC165 {\r\n\r\n    constructor () {\r\n        // o constructor tem que utiilzar o registerinterface para gerar uma assinatura gerando cdigo tipo bytes4 que ir checar se as duas\r\n        //funcoes foram implementadas (faz isso atravs de algoritmo de criptografia keccak). \r\n        _registerInterface( bytes4( keccak256('supportsInterface(bytes4)') ^ keccak256('_registerInterface(bytes4)')));\r\n    }\r\n\r\n    mapping (bytes4 => bool) public _suportedInterfaces;\r\n\r\n    function supportsInterface (bytes4 interfaceId) external  view returns (bool){\r\n        return _suportedInterfaces[interfaceId];\r\n    }\r\n\r\n    //0xffffffff  como se fosse um endereo zero\r\n    function _registerInterface (bytes4 interfaceId) public {\r\n        require (interfaceId != 0xffffffff, \"ERC165: Invalid Interface\");\r\n        _suportedInterfaces[interfaceId] = true;\r\n    }\r\n\r\n}",
  "sourcePath": "C:\\Users\\ITAUTEC\\Desktop\\SOLIDITY\\CURSO NFT MINTER\\nft-marketplace-starter-kit-main\\src\\contracts\\ERC165.sol",
  "compiler": {
    "name": "solc",
    "version": "0.8.15+commit.e14f2714.Emscripten.clang"
  },
  "schemaVersion": "3.4.7",
  "updatedAt": "2022-06-27T16:32:47.928Z",
  "networkType": "ethereum",
  "devdoc": {
    "kind": "dev",
    "methods": {},
    "version": 1
  },
  "userdoc": {
    "kind": "user",
    "methods": {},
    "version": 1
  }
}