{
  "contractName": "ERC721",
  "abi": [
    {
      "inputs": [],
      "stateMutability": "nonpayable",
      "type": "constructor"
    },
    {
      "anonymous": false,
      "inputs": [
        {
          "indexed": false,
          "internalType": "address",
          "name": "from",
          "type": "address"
        },
        {
          "indexed": false,
          "internalType": "address",
          "name": "to",
          "type": "address"
        },
        {
          "indexed": false,
          "internalType": "uint256",
          "name": "tokenId",
          "type": "uint256"
        }
      ],
      "name": "Approval",
      "type": "event"
    },
    {
      "anonymous": false,
      "inputs": [
        {
          "indexed": true,
          "internalType": "address",
          "name": "from",
          "type": "address"
        },
        {
          "indexed": true,
          "internalType": "address",
          "name": "to",
          "type": "address"
        },
        {
          "indexed": false,
          "internalType": "uint256",
          "name": "tokenId",
          "type": "uint256"
        }
      ],
      "name": "Transfer",
      "type": "event"
    },
    {
      "inputs": [
        {
          "internalType": "bytes4",
          "name": "interfaceId",
          "type": "bytes4"
        }
      ],
      "name": "_registerInterface",
      "outputs": [],
      "stateMutability": "nonpayable",
      "type": "function"
    },
    {
      "inputs": [
        {
          "internalType": "bytes4",
          "name": "",
          "type": "bytes4"
        }
      ],
      "name": "_suportedInterfaces",
      "outputs": [
        {
          "internalType": "bool",
          "name": "",
          "type": "bool"
        }
      ],
      "stateMutability": "view",
      "type": "function"
    },
    {
      "inputs": [
        {
          "internalType": "bytes4",
          "name": "interfaceId",
          "type": "bytes4"
        }
      ],
      "name": "supportsInterface",
      "outputs": [
        {
          "internalType": "bool",
          "name": "",
          "type": "bool"
        }
      ],
      "stateMutability": "view",
      "type": "function"
    },
    {
      "inputs": [
        {
          "internalType": "address",
          "name": "_owner",
          "type": "address"
        }
      ],
      "name": "balanceOf",
      "outputs": [
        {
          "internalType": "uint256",
          "name": "",
          "type": "uint256"
        }
      ],
      "stateMutability": "view",
      "type": "function"
    },
    {
      "inputs": [
        {
          "internalType": "uint256",
          "name": "_tokenId",
          "type": "uint256"
        }
      ],
      "name": "ownerOf",
      "outputs": [
        {
          "internalType": "address",
          "name": "",
          "type": "address"
        }
      ],
      "stateMutability": "view",
      "type": "function"
    },
    {
      "inputs": [
        {
          "internalType": "address",
          "name": "_from",
          "type": "address"
        },
        {
          "internalType": "address",
          "name": "_to",
          "type": "address"
        },
        {
          "internalType": "uint256",
          "name": "_tokenId",
          "type": "uint256"
        }
      ],
      "name": "transferFrom",
      "outputs": [],
      "stateMutability": "nonpayable",
      "type": "function"
    },
    {
      "inputs": [
        {
          "internalType": "address",
          "name": "_to",
          "type": "address"
        },
        {
          "internalType": "uint256",
          "name": "tokenId",
          "type": "uint256"
        }
      ],
      "name": "approve",
      "outputs": [],
      "stateMutability": "nonpayable",
      "type": "function"
    }
  ],
  "bytecode": "0x608060405234801561001057600080fd5b506100627f068417d99438efa57c62b8a2f5c6aa9edc2f5916afbf754b62df6d6bc528f1637f01ffc9a7a5cef8baa21ed3c5c0d7e23accb804b619e9333b597f47a0d84076e2186100fc60201b60201c565b6100f77f8c51fd5fcf1f456ec4eb0f32f68d83471264fe082fac12bcbfd2fa4be9eed6c77f22c82707ba960a14c7592ffb6b8cfaa073fed0048a84cc7fa41f6b5bd8e7f2e47f3a6eb71757dfc6e784c1459d26270140c2c147d95ca985c80026fc5301c3eca17f8a7e378434598edc36d108689a030cbc9d7d465de4f74c71bae1028eed6a881b1818186100fc60201b60201c565b61024d565b63ffffffff60e01b817bffffffffffffffffffffffffffffffffffffffffffffffffffffffff191603610164576040517f08c379a000000000000000000000000000000000000000000000000000000000815260040161015b9061022d565b60405180910390fd5b6001600080837bffffffffffffffffffffffffffffffffffffffffffffffffffffffff19167bffffffffffffffffffffffffffffffffffffffffffffffffffffffff1916815260200190815260200160002060006101000a81548160ff02191690831515021790555050565b600082825260208201905092915050565b7f4552433136353a20496e76616c696420496e7465726661636500000000000000600082015250565b60006102176019836101d0565b9150610222826101e1565b602082019050919050565b600060208201905081810360008301526102468161020a565b9050919050565b610e878061025c6000396000f3fe608060405234801561001057600080fd5b506004361061007d5760003560e01c806323b872dd1161005b57806323b872dd146100ea57806350ee2e51146101065780636352211e1461013657806370a08231146101665761007d565b806301ffc9a714610082578063068417d9146100b2578063095ea7b3146100ce575b600080fd5b61009c60048036038101906100979190610890565b610196565b6040516100a991906108d8565b60405180910390f35b6100cc60048036038101906100c79190610890565b6101fd565b005b6100e860048036038101906100e39190610987565b6102d1565b005b61010460048036038101906100ff91906109c7565b61044c565b005b610120600480360381019061011b9190610890565b61045c565b60405161012d91906108d8565b60405180910390f35b610150600480360381019061014b9190610a1a565b61047c565b60405161015d9190610a56565b60405180910390f35b610180600480360381019061017b9190610a71565b61052d565b60405161018d9190610aad565b60405180910390f35b6000806000837bffffffffffffffffffffffffffffffffffffffffffffffffffffffff19167bffffffffffffffffffffffffffffffffffffffffffffffffffffffff1916815260200190815260200160002060009054906101000a900460ff169050919050565b63ffffffff60e01b817bffffffffffffffffffffffffffffffffffffffffffffffffffffffff191603610265576040517f08c379a000000000000000000000000000000000000000000000000000000000815260040161025c90610b25565b60405180910390fd5b6001600080837bffffffffffffffffffffffffffffffffffffffffffffffffffffffff19167bffffffffffffffffffffffffffffffffffffffffffffffffffffffff1916815260200190815260200160002060006101000a81548160ff02191690831515021790555050565b60006102dc8261047c565b90508073ffffffffffffffffffffffffffffffffffffffff168373ffffffffffffffffffffffffffffffffffffffff160361034c576040517f08c379a000000000000000000000000000000000000000000000000000000000815260040161034390610b91565b60405180910390fd5b3373ffffffffffffffffffffffffffffffffffffffff168173ffffffffffffffffffffffffffffffffffffffff16146103ba576040517f08c379a00000000000000000000000000000000000000000000000000000000081526004016103b190610bfd565b60405180910390fd5b826003600084815260200190815260200160002060006101000a81548173ffffffffffffffffffffffffffffffffffffffff021916908373ffffffffffffffffffffffffffffffffffffffff1602179055507f8c5be1e5ebec7d5bd14f71427d1e84f3dd0314c0f7b2291e5b200ac8c7c3b92581848460405161043f93929190610c1d565b60405180910390a1505050565b6104578383836105e4565b505050565b60006020528060005260406000206000915054906101000a900460ff1681565b6000806001600084815260200190815260200160002060009054906101000a900473ffffffffffffffffffffffffffffffffffffffff169050600073ffffffffffffffffffffffffffffffffffffffff168173ffffffffffffffffffffffffffffffffffffffff1603610524576040517f08c379a000000000000000000000000000000000000000000000000000000000815260040161051b90610ca0565b60405180910390fd5b80915050919050565b60008073ffffffffffffffffffffffffffffffffffffffff168273ffffffffffffffffffffffffffffffffffffffff160361059d576040517f08c379a000000000000000000000000000000000000000000000000000000000815260040161059490610d0c565b60405180910390fd5b600260008373ffffffffffffffffffffffffffffffffffffffff1673ffffffffffffffffffffffffffffffffffffffff168152602001908152602001600020549050919050565b8273ffffffffffffffffffffffffffffffffffffffff166106048261047c565b73ffffffffffffffffffffffffffffffffffffffff161461065a576040517f08c379a000000000000000000000000000000000000000000000000000000000815260040161065190610d78565b60405180910390fd5b600073ffffffffffffffffffffffffffffffffffffffff168273ffffffffffffffffffffffffffffffffffffffff16036106c9576040517f08c379a00000000000000000000000000000000000000000000000000000000081526004016106c090610d0c565b60405180910390fd5b6001600260008573ffffffffffffffffffffffffffffffffffffffff1673ffffffffffffffffffffffffffffffffffffffff16815260200190815260200160002060008282546107199190610dc7565b925050819055506001600260008473ffffffffffffffffffffffffffffffffffffffff1673ffffffffffffffffffffffffffffffffffffffff16815260200190815260200160002060008282546107709190610dfb565b92505081905550816001600083815260200190815260200160002060006101000a81548173ffffffffffffffffffffffffffffffffffffffff021916908373ffffffffffffffffffffffffffffffffffffffff1602179055508173ffffffffffffffffffffffffffffffffffffffff168373ffffffffffffffffffffffffffffffffffffffff167fddf252ad1be2c89b69c2b068fc378daa952ba7f163c4a11628f55a4df523b3ef836040516108269190610aad565b60405180910390a3505050565b600080fd5b60007fffffffff0000000000000000000000000000000000000000000000000000000082169050919050565b61086d81610838565b811461087857600080fd5b50565b60008135905061088a81610864565b92915050565b6000602082840312156108a6576108a5610833565b5b60006108b48482850161087b565b91505092915050565b60008115159050919050565b6108d2816108bd565b82525050565b60006020820190506108ed60008301846108c9565b92915050565b600073ffffffffffffffffffffffffffffffffffffffff82169050919050565b600061091e826108f3565b9050919050565b61092e81610913565b811461093957600080fd5b50565b60008135905061094b81610925565b92915050565b6000819050919050565b61096481610951565b811461096f57600080fd5b50565b6000813590506109818161095b565b92915050565b6000806040838503121561099e5761099d610833565b5b60006109ac8582860161093c565b92505060206109bd85828601610972565b9150509250929050565b6000806000606084860312156109e0576109df610833565b5b60006109ee8682870161093c565b93505060206109ff8682870161093c565b9250506040610a1086828701610972565b9150509250925092565b600060208284031215610a3057610a2f610833565b5b6000610a3e84828501610972565b91505092915050565b610a5081610913565b82525050565b6000602082019050610a6b6000830184610a47565b92915050565b600060208284031215610a8757610a86610833565b5b6000610a958482850161093c565b91505092915050565b610aa781610951565b82525050565b6000602082019050610ac26000830184610a9e565b92915050565b600082825260208201905092915050565b7f4552433136353a20496e76616c696420496e7465726661636500000000000000600082015250565b6000610b0f601983610ac8565b9150610b1a82610ad9565b602082019050919050565b60006020820190508181036000830152610b3e81610b02565b9050919050565b7f4572726f72202d20617070726f76616c2063757272656e74206f776e65720000600082015250565b6000610b7b601e83610ac8565b9150610b8682610b45565b602082019050919050565b60006020820190508181036000830152610baa81610b6e565b9050919050565b7f4e6f74206f776e6572204e465400000000000000000000000000000000000000600082015250565b6000610be7600d83610ac8565b9150610bf282610bb1565b602082019050919050565b60006020820190508181036000830152610c1681610bda565b9050919050565b6000606082019050610c326000830186610a47565b610c3f6020830185610a47565b610c4c6040830184610a9e565b949350505050565b7f4f776e657220717565727920666f72206e6f6e2d657869737420746f6b656e00600082015250565b6000610c8a601f83610ac8565b9150610c9582610c54565b602082019050919050565b60006020820190508181036000830152610cb981610c7d565b9050919050565b7f496e76616c696420616464726573730000000000000000000000000000000000600082015250565b6000610cf6600f83610ac8565b9150610d0182610cc0565b602082019050919050565b60006020820190508181036000830152610d2581610ce9565b9050919050565b7f49742069736e74206f776e6572206f66204e4654000000000000000000000000600082015250565b6000610d62601483610ac8565b9150610d6d82610d2c565b602082019050919050565b60006020820190508181036000830152610d9181610d55565b9050919050565b7f4e487b7100000000000000000000000000000000000000000000000000000000600052601160045260246000fd5b6000610dd282610951565b9150610ddd83610951565b925082821015610df057610def610d98565b5b828203905092915050565b6000610e0682610951565b9150610e1183610951565b9250827fffffffffffffffffffffffffffffffffffffffffffffffffffffffffffffffff03821115610e4657610e45610d98565b5b82820190509291505056fea2646970667358221220589b7b08b83aaede5c6c02434fba05b2365552bf320b6ca5e98d42a0f558cda764736f6c634300080f0033",
  "immutableReferences": {},
  "source": "// SPDX-License-Identifier: MIT\r\npragma solidity 0.8.15;\r\n\r\n//ERC721Metadata e ERC271Connector so extenses deste arquivo\r\n\r\nimport './interfaces/IERC721.sol';\r\nimport './ERC165.sol';\r\n\r\ncontract ERC721  is IERC721, ERC165 {\r\n\r\n    event Transfer (address indexed from,\r\n                        address indexed to,\r\n                        uint tokenId);\r\n\r\n    event Approval (address from, \r\n                        address to,\r\n                        uint tokenId);\r\n\r\n    constructor () {\r\n        // o constructor tem que utiilzar o registerinterface para gerar uma assinatura gerando cdigo tipo bytes4 que ir checar se as duas\r\n        //funcoes foram implementadas (faz isso atravs de algoritmo de criptografia keccak). \r\n        _registerInterface( bytes4( keccak256('balanceOf(bytes4)') ^\r\n             keccak256('ownerOf(bytes4)') ^\r\n             keccak256('transferFrom(bytes4)') ^\r\n             keccak256('approve(bytes4)') ) );\r\n    }\r\n\r\n\r\n    mapping(uint => address) private _tokenOwner;\r\n    mapping (address => uint ) private _OwnedTokensCount;\r\n    mapping (uint256 => address ) private _tokenApprovals;\r\n    \r\n\r\n    function _exists (uint tokenId) internal view returns (bool){\r\n        address owner = _tokenOwner[tokenId];\r\n\r\n        return owner !=address(0);\r\n\r\n    }\r\n\r\n    function balanceOf (address _owner) external view returns (uint){\r\n        require(_owner != address(0), \"Invalid address\");\r\n        return _OwnedTokensCount[_owner];\r\n    }\r\n\r\n    function ownerOf (uint _tokenId) public view returns (address){\r\n        address owner = _tokenOwner[_tokenId];\r\n        require (owner != address (0), \"Owner query for non-exist token\");\r\n        return owner;\r\n    }\r\n\r\n    \r\n    function _mint (address to, uint tokenId) internal virtual {\r\n        require (to != address(0), \"ERC 721: minting to the zero address --- Address not valid!\");\r\n        require (!_exists(tokenId), \"ERC 721: Token already minted --- O token ja foi mintado\");\r\n        _tokenOwner[tokenId] = to;\r\n        _OwnedTokensCount[to]  +=1;\r\n        emit Transfer(address(0), to, tokenId);\r\n    }\r\n\r\n    function _transferFrom (address _from, address _to, uint256 _tokenId) internal  {\r\n        require (ownerOf(_tokenId) == _from, \"It isnt owner of NFT\");\r\n        require (_to != address(0), \"Invalid address\");\r\n        _OwnedTokensCount[_from] -= 1;\r\n        _OwnedTokensCount[_to] += 1;\r\n        _tokenOwner[_tokenId] = _to;\r\n\r\n        emit Transfer(_from, _to, _tokenId);\r\n\r\n    }\r\n\r\n    function transferFrom (address _from, address _to, uint256 _tokenId) public  {\r\n        _transferFrom(_from, _to, _tokenId);\r\n    }\r\n    \r\n    function approve(address _to, uint256 tokenId) public {\r\n        address owner = ownerOf(tokenId);\r\n        require (_to != owner, \"Error - approval current owner\");\r\n        require (owner == msg.sender, \"Not owner NFT\");\r\n        //require (_to != address(0), \"Address not valid\");\r\n        \r\n        _tokenApprovals[tokenId] = _to;\r\n\r\n        emit Approval(owner, _to, tokenId);\r\n        \r\n\r\n    }\r\n\r\n}",
  "sourcePath": "C:\\Users\\ITAUTEC\\Desktop\\SOLIDITY\\CURSO NFT MINTER\\nft-marketplace-starter-kit-main\\src\\contracts\\ERC721.sol",
  "compiler": {
    "name": "solc",
    "version": "0.8.15+commit.e14f2714.Emscripten.clang"
  },
  "schemaVersion": "3.4.7",
  "updatedAt": "2022-06-27T16:32:29.951Z",
  "devdoc": {
    "kind": "dev",
    "methods": {},
    "version": 1
  },
  "userdoc": {
    "kind": "user",
    "methods": {},
    "version": 1
  }
}