{
  "contractName": "ERC721Metadata",
  "abi": [
    {
      "inputs": [
        {
          "internalType": "string",
          "name": "named",
          "type": "string"
        },
        {
          "internalType": "string",
          "name": "symbolified",
          "type": "string"
        }
      ],
      "stateMutability": "nonpayable",
      "type": "constructor"
    },
    {
      "inputs": [
        {
          "internalType": "bytes4",
          "name": "interfaceId",
          "type": "bytes4"
        }
      ],
      "name": "_registerInterface",
      "outputs": [],
      "stateMutability": "nonpayable",
      "type": "function"
    },
    {
      "inputs": [
        {
          "internalType": "bytes4",
          "name": "",
          "type": "bytes4"
        }
      ],
      "name": "_suportedInterfaces",
      "outputs": [
        {
          "internalType": "bool",
          "name": "",
          "type": "bool"
        }
      ],
      "stateMutability": "view",
      "type": "function"
    },
    {
      "inputs": [
        {
          "internalType": "bytes4",
          "name": "interfaceId",
          "type": "bytes4"
        }
      ],
      "name": "supportsInterface",
      "outputs": [
        {
          "internalType": "bool",
          "name": "",
          "type": "bool"
        }
      ],
      "stateMutability": "view",
      "type": "function"
    },
    {
      "inputs": [],
      "name": "name",
      "outputs": [
        {
          "internalType": "string",
          "name": "",
          "type": "string"
        }
      ],
      "stateMutability": "view",
      "type": "function"
    },
    {
      "inputs": [],
      "name": "symbol",
      "outputs": [
        {
          "internalType": "string",
          "name": "",
          "type": "string"
        }
      ],
      "stateMutability": "view",
      "type": "function"
    }
  ],
  "bytecode": "0x60806040523480156200001157600080fd5b5060405162000dd738038062000dd783398181016040528101906200003791906200037d565b6200008a7f068417d99438efa57c62b8a2f5c6aa9edc2f5916afbf754b62df6d6bc528f1637f01ffc9a7a5cef8baa21ed3c5c0d7e23accb804b619e9333b597f47a0d84076e2186200010960201b60201c565b620000dd7f13b182f4c0e5b2efbac0efe6cf6d756c8b89f4b79c5707a043ed9ea740574ee97f7feaf19471f34a12a7eaf32d5f3090aa2260ea8624dc8a138e74e0bf0f623076186200010960201b60201c565b8160019081620000ee91906200064d565b5080600290816200010091906200064d565b505050620007b7565b63ffffffff60e01b817bffffffffffffffffffffffffffffffffffffffffffffffffffffffff19160362000174576040517f08c379a00000000000000000000000000000000000000000000000000000000081526004016200016b9062000795565b60405180910390fd5b6001600080837bffffffffffffffffffffffffffffffffffffffffffffffffffffffff19167bffffffffffffffffffffffffffffffffffffffffffffffffffffffff1916815260200190815260200160002060006101000a81548160ff02191690831515021790555050565b6000604051905090565b600080fd5b600080fd5b600080fd5b600080fd5b6000601f19601f8301169050919050565b7f4e487b7100000000000000000000000000000000000000000000000000000000600052604160045260246000fd5b6200024982620001fe565b810181811067ffffffffffffffff821117156200026b576200026a6200020f565b5b80604052505050565b600062000280620001e0565b90506200028e82826200023e565b919050565b600067ffffffffffffffff821115620002b157620002b06200020f565b5b620002bc82620001fe565b9050602081019050919050565b60005b83811015620002e9578082015181840152602081019050620002cc565b83811115620002f9576000848401525b50505050565b600062000316620003108462000293565b62000274565b905082815260208101848484011115620003355762000334620001f9565b5b62000342848285620002c9565b509392505050565b600082601f830112620003625762000361620001f4565b5b815162000374848260208601620002ff565b91505092915050565b60008060408385031215620003975762000396620001ea565b5b600083015167ffffffffffffffff811115620003b857620003b7620001ef565b5b620003c6858286016200034a565b925050602083015167ffffffffffffffff811115620003ea57620003e9620001ef565b5b620003f8858286016200034a565b9150509250929050565b600081519050919050565b7f4e487b7100000000000000000000000000000000000000000000000000000000600052602260045260246000fd5b600060028204905060018216806200045557607f821691505b6020821081036200046b576200046a6200040d565b5b50919050565b60008190508160005260206000209050919050565b60006020601f8301049050919050565b600082821b905092915050565b600060088302620004d57fffffffffffffffffffffffffffffffffffffffffffffffffffffffffffffffff8262000496565b620004e1868362000496565b95508019841693508086168417925050509392505050565b6000819050919050565b6000819050919050565b60006200052e620005286200052284620004f9565b62000503565b620004f9565b9050919050565b6000819050919050565b6200054a836200050d565b62000562620005598262000535565b848454620004a3565b825550505050565b600090565b620005796200056a565b620005868184846200053f565b505050565b5b81811015620005ae57620005a26000826200056f565b6001810190506200058c565b5050565b601f821115620005fd57620005c78162000471565b620005d28462000486565b81016020851015620005e2578190505b620005fa620005f18562000486565b8301826200058b565b50505b505050565b600082821c905092915050565b6000620006226000198460080262000602565b1980831691505092915050565b60006200063d83836200060f565b9150826002028217905092915050565b620006588262000402565b67ffffffffffffffff8111156200067457620006736200020f565b5b6200068082546200043c565b6200068d828285620005b2565b600060209050601f831160018114620006c55760008415620006b0578287015190505b620006bc85826200062f565b8655506200072c565b601f198416620006d58662000471565b60005b82811015620006ff57848901518255600182019150602085019450602081019050620006d8565b868310156200071f57848901516200071b601f8916826200060f565b8355505b6001600288020188555050505b505050505050565b600082825260208201905092915050565b7f4552433136353a20496e76616c696420496e7465726661636500000000000000600082015250565b60006200077d60198362000734565b91506200078a8262000745565b602082019050919050565b60006020820190508181036000830152620007b0816200076e565b9050919050565b61061080620007c76000396000f3fe608060405234801561001057600080fd5b50600436106100575760003560e01c806301ffc9a71461005c578063068417d91461008c57806306fdde03146100a857806350ee2e51146100c657806395d89b41146100f6575b600080fd5b610076600480360381019061007191906103f0565b610114565b6040516100839190610438565b60405180910390f35b6100a660048036038101906100a191906103f0565b61017b565b005b6100b061024f565b6040516100bd91906104ec565b60405180910390f35b6100e060048036038101906100db91906103f0565b6102e1565b6040516100ed9190610438565b60405180910390f35b6100fe610301565b60405161010b91906104ec565b60405180910390f35b6000806000837bffffffffffffffffffffffffffffffffffffffffffffffffffffffff19167bffffffffffffffffffffffffffffffffffffffffffffffffffffffff1916815260200190815260200160002060009054906101000a900460ff169050919050565b63ffffffff60e01b817bffffffffffffffffffffffffffffffffffffffffffffffffffffffff1916036101e3576040517f08c379a00000000000000000000000000000000000000000000000000000000081526004016101da9061055a565b60405180910390fd5b6001600080837bffffffffffffffffffffffffffffffffffffffffffffffffffffffff19167bffffffffffffffffffffffffffffffffffffffffffffffffffffffff1916815260200190815260200160002060006101000a81548160ff02191690831515021790555050565b60606001805461025e906105a9565b80601f016020809104026020016040519081016040528092919081815260200182805461028a906105a9565b80156102d75780601f106102ac576101008083540402835291602001916102d7565b820191906000526020600020905b8154815290600101906020018083116102ba57829003601f168201915b5050505050905090565b60006020528060005260406000206000915054906101000a900460ff1681565b606060028054610310906105a9565b80601f016020809104026020016040519081016040528092919081815260200182805461033c906105a9565b80156103895780601f1061035e57610100808354040283529160200191610389565b820191906000526020600020905b81548152906001019060200180831161036c57829003601f168201915b5050505050905090565b600080fd5b60007fffffffff0000000000000000000000000000000000000000000000000000000082169050919050565b6103cd81610398565b81146103d857600080fd5b50565b6000813590506103ea816103c4565b92915050565b60006020828403121561040657610405610393565b5b6000610414848285016103db565b91505092915050565b60008115159050919050565b6104328161041d565b82525050565b600060208201905061044d6000830184610429565b92915050565b600081519050919050565b600082825260208201905092915050565b60005b8381101561048d578082015181840152602081019050610472565b8381111561049c576000848401525b50505050565b6000601f19601f8301169050919050565b60006104be82610453565b6104c8818561045e565b93506104d881856020860161046f565b6104e1816104a2565b840191505092915050565b6000602082019050818103600083015261050681846104b3565b905092915050565b7f4552433136353a20496e76616c696420496e7465726661636500000000000000600082015250565b600061054460198361045e565b915061054f8261050e565b602082019050919050565b6000602082019050818103600083015261057381610537565b9050919050565b7f4e487b7100000000000000000000000000000000000000000000000000000000600052602260045260246000fd5b600060028204905060018216806105c157607f821691505b6020821081036105d4576105d361057a565b5b5091905056fea26469706673582212207ad2e17c8e155de5112007779bb895ba06b0d98bfc890e1ad55f8da2b096e9ae64736f6c634300080f0033",
  "immutableReferences": {},
  "source": "// SPDX-License-Identifier: MIT\r\npragma solidity 0.8.15;\r\n\r\nimport \"./interfaces/IERC721Metadata.sol\";\r\nimport \"./ERC721.sol\";\r\n\r\ncontract ERC721Metadata is ERC165 , IERC721Metadata {\r\n\r\n    string private _name;\r\n    //como  privada coloca-se _\r\n\r\n    string private _symbol;\r\n\r\n    constructor (string memory named, string memory symbolified){\r\n        _registerInterface(bytes4( keccak256('name(bytes4)') ^ keccak256('symbol(bytes4)')));\r\n\r\n        _name = named;\r\n        _symbol = symbolified;\r\n    }\r\n\r\n    function name () external view returns (string memory) {\r\n        return _name;\r\n    }\r\n\r\n    function symbol () external view returns (string memory) {\r\n        return _symbol;\r\n    }\r\n\r\n}",
  "sourcePath": "C:\\Users\\ITAUTEC\\Desktop\\SOLIDITY\\CURSO NFT MINTER\\nft-marketplace-starter-kit-main\\src\\contracts\\ERC721Metadata.sol",
  "compiler": {
    "name": "solc",
    "version": "0.8.15+commit.e14f2714.Emscripten.clang"
  },
  "schemaVersion": "3.4.7",
  "updatedAt": "2022-06-27T16:32:30.025Z",
  "devdoc": {
    "kind": "dev",
    "methods": {},
    "version": 1
  },
  "userdoc": {
    "kind": "user",
    "methods": {},
    "version": 1
  }
}