{
  "contractName": "ERC721Connector",
  "abi": [
    {
      "inputs": [
        {
          "internalType": "string",
          "name": "name",
          "type": "string"
        },
        {
          "internalType": "string",
          "name": "symbol",
          "type": "string"
        }
      ],
      "stateMutability": "nonpayable",
      "type": "constructor"
    },
    {
      "anonymous": false,
      "inputs": [
        {
          "indexed": false,
          "internalType": "address",
          "name": "from",
          "type": "address"
        },
        {
          "indexed": false,
          "internalType": "address",
          "name": "to",
          "type": "address"
        },
        {
          "indexed": false,
          "internalType": "uint256",
          "name": "tokenId",
          "type": "uint256"
        }
      ],
      "name": "Approval",
      "type": "event"
    },
    {
      "anonymous": false,
      "inputs": [
        {
          "indexed": true,
          "internalType": "address",
          "name": "from",
          "type": "address"
        },
        {
          "indexed": true,
          "internalType": "address",
          "name": "to",
          "type": "address"
        },
        {
          "indexed": false,
          "internalType": "uint256",
          "name": "tokenId",
          "type": "uint256"
        }
      ],
      "name": "Transfer",
      "type": "event"
    },
    {
      "inputs": [
        {
          "internalType": "bytes4",
          "name": "interfaceId",
          "type": "bytes4"
        }
      ],
      "name": "_registerInterface",
      "outputs": [],
      "stateMutability": "nonpayable",
      "type": "function"
    },
    {
      "inputs": [
        {
          "internalType": "bytes4",
          "name": "",
          "type": "bytes4"
        }
      ],
      "name": "_suportedInterfaces",
      "outputs": [
        {
          "internalType": "bool",
          "name": "",
          "type": "bool"
        }
      ],
      "stateMutability": "view",
      "type": "function"
    },
    {
      "inputs": [
        {
          "internalType": "address",
          "name": "_to",
          "type": "address"
        },
        {
          "internalType": "uint256",
          "name": "tokenId",
          "type": "uint256"
        }
      ],
      "name": "approve",
      "outputs": [],
      "stateMutability": "nonpayable",
      "type": "function"
    },
    {
      "inputs": [
        {
          "internalType": "address",
          "name": "_owner",
          "type": "address"
        }
      ],
      "name": "balanceOf",
      "outputs": [
        {
          "internalType": "uint256",
          "name": "",
          "type": "uint256"
        }
      ],
      "stateMutability": "view",
      "type": "function"
    },
    {
      "inputs": [],
      "name": "name",
      "outputs": [
        {
          "internalType": "string",
          "name": "",
          "type": "string"
        }
      ],
      "stateMutability": "view",
      "type": "function"
    },
    {
      "inputs": [
        {
          "internalType": "uint256",
          "name": "_tokenId",
          "type": "uint256"
        }
      ],
      "name": "ownerOf",
      "outputs": [
        {
          "internalType": "address",
          "name": "",
          "type": "address"
        }
      ],
      "stateMutability": "view",
      "type": "function"
    },
    {
      "inputs": [
        {
          "internalType": "bytes4",
          "name": "interfaceId",
          "type": "bytes4"
        }
      ],
      "name": "supportsInterface",
      "outputs": [
        {
          "internalType": "bool",
          "name": "",
          "type": "bool"
        }
      ],
      "stateMutability": "view",
      "type": "function"
    },
    {
      "inputs": [],
      "name": "symbol",
      "outputs": [
        {
          "internalType": "string",
          "name": "",
          "type": "string"
        }
      ],
      "stateMutability": "view",
      "type": "function"
    },
    {
      "inputs": [
        {
          "internalType": "uint256",
          "name": "index",
          "type": "uint256"
        }
      ],
      "name": "tokenByIndex",
      "outputs": [
        {
          "internalType": "uint256",
          "name": "",
          "type": "uint256"
        }
      ],
      "stateMutability": "view",
      "type": "function"
    },
    {
      "inputs": [
        {
          "internalType": "address",
          "name": "to",
          "type": "address"
        },
        {
          "internalType": "uint256",
          "name": "index",
          "type": "uint256"
        }
      ],
      "name": "tokenOfOwnerByIndex",
      "outputs": [
        {
          "internalType": "uint256",
          "name": "",
          "type": "uint256"
        }
      ],
      "stateMutability": "view",
      "type": "function"
    },
    {
      "inputs": [],
      "name": "totalSupply",
      "outputs": [
        {
          "internalType": "uint256",
          "name": "",
          "type": "uint256"
        }
      ],
      "stateMutability": "view",
      "type": "function"
    },
    {
      "inputs": [
        {
          "internalType": "address",
          "name": "_from",
          "type": "address"
        },
        {
          "internalType": "address",
          "name": "_to",
          "type": "address"
        },
        {
          "internalType": "uint256",
          "name": "_tokenId",
          "type": "uint256"
        }
      ],
      "name": "transferFrom",
      "outputs": [],
      "stateMutability": "nonpayable",
      "type": "function"
    }
  ],
  "bytecode": "0x60806040523480156200001157600080fd5b5060405162001bfc38038062001bfc83398181016040528101906200003791906200048d565b81816200008c7f068417d99438efa57c62b8a2f5c6aa9edc2f5916afbf754b62df6d6bc528f1637f01ffc9a7a5cef8baa21ed3c5c0d7e23accb804b619e9333b597f47a0d84076e2186200021960201b60201c565b620000df7f13b182f4c0e5b2efbac0efe6cf6d756c8b89f4b79c5707a043ed9ea740574ee97f7feaf19471f34a12a7eaf32d5f3090aa2260ea8624dc8a138e74e0bf0f623076186200021960201b60201c565b8160019081620000f091906200075d565b5080600290816200010291906200075d565b5050506200019c7f8c51fd5fcf1f456ec4eb0f32f68d83471264fe082fac12bcbfd2fa4be9eed6c77f22c82707ba960a14c7592ffb6b8cfaa073fed0048a84cc7fa41f6b5bd8e7f2e47f3a6eb71757dfc6e784c1459d26270140c2c147d95ca985c80026fc5301c3eca17f8a7e378434598edc36d108689a030cbc9d7d465de4f74c71bae1028eed6a881b1818186200021960201b60201c565b620002117f8230223f691b981717299fae9549350a0d894555723531f02108b1f522c1a7977f6da5e1284143cdd2d15038a59bde3be031250f00291d64494c12d967b3a4e0c37fc53637662700e6c65104059db8bba34439e0c32483ab7c34e3ccae52c739549518186200021960201b60201c565b5050620008c7565b63ffffffff60e01b817bffffffffffffffffffffffffffffffffffffffffffffffffffffffff19160362000284576040517f08c379a00000000000000000000000000000000000000000000000000000000081526004016200027b90620008a5565b60405180910390fd5b6001600080837bffffffffffffffffffffffffffffffffffffffffffffffffffffffff19167bffffffffffffffffffffffffffffffffffffffffffffffffffffffff1916815260200190815260200160002060006101000a81548160ff02191690831515021790555050565b6000604051905090565b600080fd5b600080fd5b600080fd5b600080fd5b6000601f19601f8301169050919050565b7f4e487b7100000000000000000000000000000000000000000000000000000000600052604160045260246000fd5b62000359826200030e565b810181811067ffffffffffffffff821117156200037b576200037a6200031f565b5b80604052505050565b600062000390620002f0565b90506200039e82826200034e565b919050565b600067ffffffffffffffff821115620003c157620003c06200031f565b5b620003cc826200030e565b9050602081019050919050565b60005b83811015620003f9578082015181840152602081019050620003dc565b8381111562000409576000848401525b50505050565b6000620004266200042084620003a3565b62000384565b90508281526020810184848401111562000445576200044462000309565b5b62000452848285620003d9565b509392505050565b600082601f83011262000472576200047162000304565b5b8151620004848482602086016200040f565b91505092915050565b60008060408385031215620004a757620004a6620002fa565b5b600083015167ffffffffffffffff811115620004c857620004c7620002ff565b5b620004d6858286016200045a565b925050602083015167ffffffffffffffff811115620004fa57620004f9620002ff565b5b62000508858286016200045a565b9150509250929050565b600081519050919050565b7f4e487b7100000000000000000000000000000000000000000000000000000000600052602260045260246000fd5b600060028204905060018216806200056557607f821691505b6020821081036200057b576200057a6200051d565b5b50919050565b60008190508160005260206000209050919050565b60006020601f8301049050919050565b600082821b905092915050565b600060088302620005e57fffffffffffffffffffffffffffffffffffffffffffffffffffffffffffffffff82620005a6565b620005f18683620005a6565b95508019841693508086168417925050509392505050565b6000819050919050565b6000819050919050565b60006200063e62000638620006328462000609565b62000613565b62000609565b9050919050565b6000819050919050565b6200065a836200061d565b62000672620006698262000645565b848454620005b3565b825550505050565b600090565b620006896200067a565b620006968184846200064f565b505050565b5b81811015620006be57620006b26000826200067f565b6001810190506200069c565b5050565b601f8211156200070d57620006d78162000581565b620006e28462000596565b81016020851015620006f2578190505b6200070a620007018562000596565b8301826200069b565b50505b505050565b600082821c905092915050565b6000620007326000198460080262000712565b1980831691505092915050565b60006200074d83836200071f565b9150826002028217905092915050565b620007688262000512565b67ffffffffffffffff8111156200078457620007836200031f565b5b6200079082546200054c565b6200079d828285620006c2565b600060209050601f831160018114620007d55760008415620007c0578287015190505b620007cc85826200073f565b8655506200083c565b601f198416620007e58662000581565b60005b828110156200080f57848901518255600182019150602085019450602081019050620007e8565b868310156200082f57848901516200082b601f8916826200071f565b8355505b6001600288020188555050505b505050505050565b600082825260208201905092915050565b7f4552433136353a20496e76616c696420496e7465726661636500000000000000600082015250565b60006200088d60198362000844565b91506200089a8262000855565b602082019050919050565b60006020820190508181036000830152620008c0816200087e565b9050919050565b61132580620008d76000396000f3fe608060405234801561001057600080fd5b50600436106100b45760003560e01c80632f745c59116100715780632f745c59146101795780634f6ccce7146101a957806350ee2e51146101d95780636352211e1461020957806370a082311461023957806395d89b4114610269576100b4565b806301ffc9a7146100b9578063068417d9146100e957806306fdde0314610105578063095ea7b31461012357806318160ddd1461013f57806323b872dd1461015d575b600080fd5b6100d360048036038101906100ce9190610b89565b610287565b6040516100e09190610bd1565b60405180910390f35b61010360048036038101906100fe9190610b89565b6102ee565b005b61010d6103c2565b60405161011a9190610c85565b60405180910390f35b61013d60048036038101906101389190610d3b565b610454565b005b6101476105cf565b6040516101549190610d8a565b60405180910390f35b61017760048036038101906101729190610da5565b6105dc565b005b610193600480360381019061018e9190610d3b565b6105ec565b6040516101a09190610d8a565b60405180910390f35b6101c360048036038101906101be9190610df8565b610652565b6040516101d09190610d8a565b60405180910390f35b6101f360048036038101906101ee9190610b89565b6106c3565b6040516102009190610bd1565b60405180910390f35b610223600480360381019061021e9190610df8565b6106e3565b6040516102309190610e34565b60405180910390f35b610253600480360381019061024e9190610e4f565b610794565b6040516102609190610d8a565b60405180910390f35b61027161084b565b60405161027e9190610c85565b60405180910390f35b6000806000837bffffffffffffffffffffffffffffffffffffffffffffffffffffffff19167bffffffffffffffffffffffffffffffffffffffffffffffffffffffff1916815260200190815260200160002060009054906101000a900460ff169050919050565b63ffffffff60e01b817bffffffffffffffffffffffffffffffffffffffffffffffffffffffff191603610356576040517f08c379a000000000000000000000000000000000000000000000000000000000815260040161034d90610ec8565b60405180910390fd5b6001600080837bffffffffffffffffffffffffffffffffffffffffffffffffffffffff19167bffffffffffffffffffffffffffffffffffffffffffffffffffffffff1916815260200190815260200160002060006101000a81548160ff02191690831515021790555050565b6060600180546103d190610f17565b80601f01602080910402602001604051908101604052809291908181526020018280546103fd90610f17565b801561044a5780601f1061041f5761010080835404028352916020019161044a565b820191906000526020600020905b81548152906001019060200180831161042d57829003601f168201915b5050505050905090565b600061045f826106e3565b90508073ffffffffffffffffffffffffffffffffffffffff168373ffffffffffffffffffffffffffffffffffffffff16036104cf576040517f08c379a00000000000000000000000000000000000000000000000000000000081526004016104c690610f94565b60405180910390fd5b3373ffffffffffffffffffffffffffffffffffffffff168173ffffffffffffffffffffffffffffffffffffffff161461053d576040517f08c379a000000000000000000000000000000000000000000000000000000000815260040161053490611000565b60405180910390fd5b826005600084815260200190815260200160002060006101000a81548173ffffffffffffffffffffffffffffffffffffffff021916908373ffffffffffffffffffffffffffffffffffffffff1602179055507f8c5be1e5ebec7d5bd14f71427d1e84f3dd0314c0f7b2291e5b200ac8c7c3b9258184846040516105c293929190611020565b60405180910390a1505050565b6000600680549050905090565b6105e78383836108dd565b505050565b6000600860008473ffffffffffffffffffffffffffffffffffffffff1673ffffffffffffffffffffffffffffffffffffffff168152602001908152602001600020828154811061063f5761063e611057565b5b9060005260206000200154905092915050565b600061065c6105cf565b821061069d576040517f08c379a0000000000000000000000000000000000000000000000000000000008152600401610694906110d2565b60405180910390fd5b600682815481106106b1576106b0611057565b5b90600052602060002001549050919050565b60006020528060005260406000206000915054906101000a900460ff1681565b6000806003600084815260200190815260200160002060009054906101000a900473ffffffffffffffffffffffffffffffffffffffff169050600073ffffffffffffffffffffffffffffffffffffffff168173ffffffffffffffffffffffffffffffffffffffff160361078b576040517f08c379a00000000000000000000000000000000000000000000000000000000081526004016107829061113e565b60405180910390fd5b80915050919050565b60008073ffffffffffffffffffffffffffffffffffffffff168273ffffffffffffffffffffffffffffffffffffffff1603610804576040517f08c379a00000000000000000000000000000000000000000000000000000000081526004016107fb906111aa565b60405180910390fd5b600460008373ffffffffffffffffffffffffffffffffffffffff1673ffffffffffffffffffffffffffffffffffffffff168152602001908152602001600020549050919050565b60606002805461085a90610f17565b80601f016020809104026020016040519081016040528092919081815260200182805461088690610f17565b80156108d35780601f106108a8576101008083540402835291602001916108d3565b820191906000526020600020905b8154815290600101906020018083116108b657829003601f168201915b5050505050905090565b8273ffffffffffffffffffffffffffffffffffffffff166108fd826106e3565b73ffffffffffffffffffffffffffffffffffffffff1614610953576040517f08c379a000000000000000000000000000000000000000000000000000000000815260040161094a90611216565b60405180910390fd5b600073ffffffffffffffffffffffffffffffffffffffff168273ffffffffffffffffffffffffffffffffffffffff16036109c2576040517f08c379a00000000000000000000000000000000000000000000000000000000081526004016109b9906111aa565b60405180910390fd5b6001600460008573ffffffffffffffffffffffffffffffffffffffff1673ffffffffffffffffffffffffffffffffffffffff1681526020019081526020016000206000828254610a129190611265565b925050819055506001600460008473ffffffffffffffffffffffffffffffffffffffff1673ffffffffffffffffffffffffffffffffffffffff1681526020019081526020016000206000828254610a699190611299565b92505081905550816003600083815260200190815260200160002060006101000a81548173ffffffffffffffffffffffffffffffffffffffff021916908373ffffffffffffffffffffffffffffffffffffffff1602179055508173ffffffffffffffffffffffffffffffffffffffff168373ffffffffffffffffffffffffffffffffffffffff167fddf252ad1be2c89b69c2b068fc378daa952ba7f163c4a11628f55a4df523b3ef83604051610b1f9190610d8a565b60405180910390a3505050565b600080fd5b60007fffffffff0000000000000000000000000000000000000000000000000000000082169050919050565b610b6681610b31565b8114610b7157600080fd5b50565b600081359050610b8381610b5d565b92915050565b600060208284031215610b9f57610b9e610b2c565b5b6000610bad84828501610b74565b91505092915050565b60008115159050919050565b610bcb81610bb6565b82525050565b6000602082019050610be66000830184610bc2565b92915050565b600081519050919050565b600082825260208201905092915050565b60005b83811015610c26578082015181840152602081019050610c0b565b83811115610c35576000848401525b50505050565b6000601f19601f8301169050919050565b6000610c5782610bec565b610c618185610bf7565b9350610c71818560208601610c08565b610c7a81610c3b565b840191505092915050565b60006020820190508181036000830152610c9f8184610c4c565b905092915050565b600073ffffffffffffffffffffffffffffffffffffffff82169050919050565b6000610cd282610ca7565b9050919050565b610ce281610cc7565b8114610ced57600080fd5b50565b600081359050610cff81610cd9565b92915050565b6000819050919050565b610d1881610d05565b8114610d2357600080fd5b50565b600081359050610d3581610d0f565b92915050565b60008060408385031215610d5257610d51610b2c565b5b6000610d6085828601610cf0565b9250506020610d7185828601610d26565b9150509250929050565b610d8481610d05565b82525050565b6000602082019050610d9f6000830184610d7b565b92915050565b600080600060608486031215610dbe57610dbd610b2c565b5b6000610dcc86828701610cf0565b9350506020610ddd86828701610cf0565b9250506040610dee86828701610d26565b9150509250925092565b600060208284031215610e0e57610e0d610b2c565b5b6000610e1c84828501610d26565b91505092915050565b610e2e81610cc7565b82525050565b6000602082019050610e496000830184610e25565b92915050565b600060208284031215610e6557610e64610b2c565b5b6000610e7384828501610cf0565b91505092915050565b7f4552433136353a20496e76616c696420496e7465726661636500000000000000600082015250565b6000610eb2601983610bf7565b9150610ebd82610e7c565b602082019050919050565b60006020820190508181036000830152610ee181610ea5565b9050919050565b7f4e487b7100000000000000000000000000000000000000000000000000000000600052602260045260246000fd5b60006002820490506001821680610f2f57607f821691505b602082108103610f4257610f41610ee8565b5b50919050565b7f4572726f72202d20617070726f76616c2063757272656e74206f776e65720000600082015250565b6000610f7e601e83610bf7565b9150610f8982610f48565b602082019050919050565b60006020820190508181036000830152610fad81610f71565b9050919050565b7f4e6f74206f776e6572204e465400000000000000000000000000000000000000600082015250565b6000610fea600d83610bf7565b9150610ff582610fb4565b602082019050919050565b6000602082019050818103600083015261101981610fdd565b9050919050565b60006060820190506110356000830186610e25565b6110426020830185610e25565b61104f6040830184610d7b565b949350505050565b7f4e487b7100000000000000000000000000000000000000000000000000000000600052603260045260246000fd5b7f476c6f62616c20696e646578206973206f7574206f6620626f756e6400000000600082015250565b60006110bc601c83610bf7565b91506110c782611086565b602082019050919050565b600060208201905081810360008301526110eb816110af565b9050919050565b7f4f776e657220717565727920666f72206e6f6e2d657869737420746f6b656e00600082015250565b6000611128601f83610bf7565b9150611133826110f2565b602082019050919050565b600060208201905081810360008301526111578161111b565b9050919050565b7f496e76616c696420616464726573730000000000000000000000000000000000600082015250565b6000611194600f83610bf7565b915061119f8261115e565b602082019050919050565b600060208201905081810360008301526111c381611187565b9050919050565b7f49742069736e74206f776e6572206f66204e4654000000000000000000000000600082015250565b6000611200601483610bf7565b915061120b826111ca565b602082019050919050565b6000602082019050818103600083015261122f816111f3565b9050919050565b7f4e487b7100000000000000000000000000000000000000000000000000000000600052601160045260246000fd5b600061127082610d05565b915061127b83610d05565b92508282101561128e5761128d611236565b5b828203905092915050565b60006112a482610d05565b91506112af83610d05565b9250827fffffffffffffffffffffffffffffffffffffffffffffffffffffffffffffffff038211156112e4576112e3611236565b5b82820190509291505056fea2646970667358221220dd9b2cded0d3d5212828341ab40ef1988caf08e19712adbef8d5a02308715d8064736f6c634300080f0033",
  "immutableReferences": {},
  "source": "// SPDX-License-Identifier: MIT\r\npragma solidity 0.8.15;\r\n\r\n\r\n//este contrato  uma ponte entre o ERC721Metadata e o Kryptobirdz\r\n\r\n\r\n//importando o contrato para herdar suas caractersticas\r\nimport './ERC721Metadata.sol';\r\nimport './ERC721Enumerable.sol';\r\n\r\n\r\ncontract ERC721Connector is ERC721Metadata, ERC721Enumerable {\r\n\r\n    //acho que essa linha j chama o constructor do ERC721Metadata\r\n    constructor (string memory name, string memory symbol) ERC721Metadata(name, symbol) {\r\n\r\n    }\r\n\r\n}",
  "sourcePath": "C:\\Users\\ITAUTEC\\Desktop\\SOLIDITY\\CURSO NFT MINTER\\nft-marketplace-starter-kit-main\\src\\contracts\\ERC721Connector.sol",
  "compiler": {
    "name": "solc",
    "version": "0.8.15+commit.e14f2714.Emscripten.clang"
  },
  "schemaVersion": "3.4.7",
  "updatedAt": "2022-06-27T16:32:29.961Z",
  "devdoc": {
    "kind": "dev",
    "methods": {},
    "version": 1
  },
  "userdoc": {
    "kind": "user",
    "methods": {
      "tokenByIndex(uint256)": {
        "notice": "estas duas no esto l na documentao/site do ERC721"
      }
    },
    "version": 1
  }
}