{
  "contractName": "ERC721Enumerable",
  "abi": [
    {
      "inputs": [],
      "stateMutability": "nonpayable",
      "type": "constructor"
    },
    {
      "anonymous": false,
      "inputs": [
        {
          "indexed": false,
          "internalType": "address",
          "name": "from",
          "type": "address"
        },
        {
          "indexed": false,
          "internalType": "address",
          "name": "to",
          "type": "address"
        },
        {
          "indexed": false,
          "internalType": "uint256",
          "name": "tokenId",
          "type": "uint256"
        }
      ],
      "name": "Approval",
      "type": "event"
    },
    {
      "anonymous": false,
      "inputs": [
        {
          "indexed": true,
          "internalType": "address",
          "name": "from",
          "type": "address"
        },
        {
          "indexed": true,
          "internalType": "address",
          "name": "to",
          "type": "address"
        },
        {
          "indexed": false,
          "internalType": "uint256",
          "name": "tokenId",
          "type": "uint256"
        }
      ],
      "name": "Transfer",
      "type": "event"
    },
    {
      "inputs": [
        {
          "internalType": "bytes4",
          "name": "interfaceId",
          "type": "bytes4"
        }
      ],
      "name": "_registerInterface",
      "outputs": [],
      "stateMutability": "nonpayable",
      "type": "function"
    },
    {
      "inputs": [
        {
          "internalType": "bytes4",
          "name": "",
          "type": "bytes4"
        }
      ],
      "name": "_suportedInterfaces",
      "outputs": [
        {
          "internalType": "bool",
          "name": "",
          "type": "bool"
        }
      ],
      "stateMutability": "view",
      "type": "function"
    },
    {
      "inputs": [
        {
          "internalType": "address",
          "name": "_to",
          "type": "address"
        },
        {
          "internalType": "uint256",
          "name": "tokenId",
          "type": "uint256"
        }
      ],
      "name": "approve",
      "outputs": [],
      "stateMutability": "nonpayable",
      "type": "function"
    },
    {
      "inputs": [
        {
          "internalType": "address",
          "name": "_owner",
          "type": "address"
        }
      ],
      "name": "balanceOf",
      "outputs": [
        {
          "internalType": "uint256",
          "name": "",
          "type": "uint256"
        }
      ],
      "stateMutability": "view",
      "type": "function"
    },
    {
      "inputs": [
        {
          "internalType": "uint256",
          "name": "_tokenId",
          "type": "uint256"
        }
      ],
      "name": "ownerOf",
      "outputs": [
        {
          "internalType": "address",
          "name": "",
          "type": "address"
        }
      ],
      "stateMutability": "view",
      "type": "function"
    },
    {
      "inputs": [
        {
          "internalType": "bytes4",
          "name": "interfaceId",
          "type": "bytes4"
        }
      ],
      "name": "supportsInterface",
      "outputs": [
        {
          "internalType": "bool",
          "name": "",
          "type": "bool"
        }
      ],
      "stateMutability": "view",
      "type": "function"
    },
    {
      "inputs": [
        {
          "internalType": "address",
          "name": "_from",
          "type": "address"
        },
        {
          "internalType": "address",
          "name": "_to",
          "type": "address"
        },
        {
          "internalType": "uint256",
          "name": "_tokenId",
          "type": "uint256"
        }
      ],
      "name": "transferFrom",
      "outputs": [],
      "stateMutability": "nonpayable",
      "type": "function"
    },
    {
      "inputs": [],
      "name": "totalSupply",
      "outputs": [
        {
          "internalType": "uint256",
          "name": "",
          "type": "uint256"
        }
      ],
      "stateMutability": "view",
      "type": "function"
    },
    {
      "inputs": [
        {
          "internalType": "uint256",
          "name": "index",
          "type": "uint256"
        }
      ],
      "name": "tokenByIndex",
      "outputs": [
        {
          "internalType": "uint256",
          "name": "",
          "type": "uint256"
        }
      ],
      "stateMutability": "view",
      "type": "function"
    },
    {
      "inputs": [
        {
          "internalType": "address",
          "name": "to",
          "type": "address"
        },
        {
          "internalType": "uint256",
          "name": "index",
          "type": "uint256"
        }
      ],
      "name": "tokenOfOwnerByIndex",
      "outputs": [
        {
          "internalType": "uint256",
          "name": "",
          "type": "uint256"
        }
      ],
      "stateMutability": "view",
      "type": "function"
    }
  ],
  "bytecode": "0x60806040523480156200001157600080fd5b50620000657f068417d99438efa57c62b8a2f5c6aa9edc2f5916afbf754b62df6d6bc528f1637f01ffc9a7a5cef8baa21ed3c5c0d7e23accb804b619e9333b597f47a0d84076e2186200017760201b60201c565b620000fc7f8c51fd5fcf1f456ec4eb0f32f68d83471264fe082fac12bcbfd2fa4be9eed6c77f22c82707ba960a14c7592ffb6b8cfaa073fed0048a84cc7fa41f6b5bd8e7f2e47f3a6eb71757dfc6e784c1459d26270140c2c147d95ca985c80026fc5301c3eca17f8a7e378434598edc36d108689a030cbc9d7d465de4f74c71bae1028eed6a881b1818186200017760201b60201c565b620001717f8230223f691b981717299fae9549350a0d894555723531f02108b1f522c1a7977f6da5e1284143cdd2d15038a59bde3be031250f00291d64494c12d967b3a4e0c37fc53637662700e6c65104059db8bba34439e0c32483ab7c34e3ccae52c739549518186200017760201b60201c565b620002d1565b63ffffffff60e01b817bffffffffffffffffffffffffffffffffffffffffffffffffffffffff191603620001e2576040517f08c379a0000000000000000000000000000000000000000000000000000000008152600401620001d990620002af565b60405180910390fd5b6001600080837bffffffffffffffffffffffffffffffffffffffffffffffffffffffff19167bffffffffffffffffffffffffffffffffffffffffffffffffffffffff1916815260200190815260200160002060006101000a81548160ff02191690831515021790555050565b600082825260208201905092915050565b7f4552433136353a20496e76616c696420496e7465726661636500000000000000600082015250565b6000620002976019836200024e565b9150620002a4826200025f565b602082019050919050565b60006020820190508181036000830152620002ca8162000288565b9050919050565b6110a580620002e16000396000f3fe608060405234801561001057600080fd5b506004361061009e5760003560e01c80632f745c59116100665780632f745c59146101455780634f6ccce71461017557806350ee2e51146101a55780636352211e146101d557806370a08231146102055761009e565b806301ffc9a7146100a3578063068417d9146100d3578063095ea7b3146100ef57806318160ddd1461010b57806323b872dd14610129575b600080fd5b6100bd60048036038101906100b89190610a13565b610235565b6040516100ca9190610a5b565b60405180910390f35b6100ed60048036038101906100e89190610a13565b61029c565b005b61010960048036038101906101049190610b0a565b610370565b005b6101136104eb565b6040516101209190610b59565b60405180910390f35b610143600480360381019061013e9190610b74565b6104f8565b005b61015f600480360381019061015a9190610b0a565b610508565b60405161016c9190610b59565b60405180910390f35b61018f600480360381019061018a9190610bc7565b61056e565b60405161019c9190610b59565b60405180910390f35b6101bf60048036038101906101ba9190610a13565b6105df565b6040516101cc9190610a5b565b60405180910390f35b6101ef60048036038101906101ea9190610bc7565b6105ff565b6040516101fc9190610c03565b60405180910390f35b61021f600480360381019061021a9190610c1e565b6106b0565b60405161022c9190610b59565b60405180910390f35b6000806000837bffffffffffffffffffffffffffffffffffffffffffffffffffffffff19167bffffffffffffffffffffffffffffffffffffffffffffffffffffffff1916815260200190815260200160002060009054906101000a900460ff169050919050565b63ffffffff60e01b817bffffffffffffffffffffffffffffffffffffffffffffffffffffffff191603610304576040517f08c379a00000000000000000000000000000000000000000000000000000000081526004016102fb90610ca8565b60405180910390fd5b6001600080837bffffffffffffffffffffffffffffffffffffffffffffffffffffffff19167bffffffffffffffffffffffffffffffffffffffffffffffffffffffff1916815260200190815260200160002060006101000a81548160ff02191690831515021790555050565b600061037b826105ff565b90508073ffffffffffffffffffffffffffffffffffffffff168373ffffffffffffffffffffffffffffffffffffffff16036103eb576040517f08c379a00000000000000000000000000000000000000000000000000000000081526004016103e290610d14565b60405180910390fd5b3373ffffffffffffffffffffffffffffffffffffffff168173ffffffffffffffffffffffffffffffffffffffff1614610459576040517f08c379a000000000000000000000000000000000000000000000000000000000815260040161045090610d80565b60405180910390fd5b826003600084815260200190815260200160002060006101000a81548173ffffffffffffffffffffffffffffffffffffffff021916908373ffffffffffffffffffffffffffffffffffffffff1602179055507f8c5be1e5ebec7d5bd14f71427d1e84f3dd0314c0f7b2291e5b200ac8c7c3b9258184846040516104de93929190610da0565b60405180910390a1505050565b6000600480549050905090565b610503838383610767565b505050565b6000600660008473ffffffffffffffffffffffffffffffffffffffff1673ffffffffffffffffffffffffffffffffffffffff168152602001908152602001600020828154811061055b5761055a610dd7565b5b9060005260206000200154905092915050565b60006105786104eb565b82106105b9576040517f08c379a00000000000000000000000000000000000000000000000000000000081526004016105b090610e52565b60405180910390fd5b600482815481106105cd576105cc610dd7565b5b90600052602060002001549050919050565b60006020528060005260406000206000915054906101000a900460ff1681565b6000806001600084815260200190815260200160002060009054906101000a900473ffffffffffffffffffffffffffffffffffffffff169050600073ffffffffffffffffffffffffffffffffffffffff168173ffffffffffffffffffffffffffffffffffffffff16036106a7576040517f08c379a000000000000000000000000000000000000000000000000000000000815260040161069e90610ebe565b60405180910390fd5b80915050919050565b60008073ffffffffffffffffffffffffffffffffffffffff168273ffffffffffffffffffffffffffffffffffffffff1603610720576040517f08c379a000000000000000000000000000000000000000000000000000000000815260040161071790610f2a565b60405180910390fd5b600260008373ffffffffffffffffffffffffffffffffffffffff1673ffffffffffffffffffffffffffffffffffffffff168152602001908152602001600020549050919050565b8273ffffffffffffffffffffffffffffffffffffffff16610787826105ff565b73ffffffffffffffffffffffffffffffffffffffff16146107dd576040517f08c379a00000000000000000000000000000000000000000000000000000000081526004016107d490610f96565b60405180910390fd5b600073ffffffffffffffffffffffffffffffffffffffff168273ffffffffffffffffffffffffffffffffffffffff160361084c576040517f08c379a000000000000000000000000000000000000000000000000000000000815260040161084390610f2a565b60405180910390fd5b6001600260008573ffffffffffffffffffffffffffffffffffffffff1673ffffffffffffffffffffffffffffffffffffffff168152602001908152602001600020600082825461089c9190610fe5565b925050819055506001600260008473ffffffffffffffffffffffffffffffffffffffff1673ffffffffffffffffffffffffffffffffffffffff16815260200190815260200160002060008282546108f39190611019565b92505081905550816001600083815260200190815260200160002060006101000a81548173ffffffffffffffffffffffffffffffffffffffff021916908373ffffffffffffffffffffffffffffffffffffffff1602179055508173ffffffffffffffffffffffffffffffffffffffff168373ffffffffffffffffffffffffffffffffffffffff167fddf252ad1be2c89b69c2b068fc378daa952ba7f163c4a11628f55a4df523b3ef836040516109a99190610b59565b60405180910390a3505050565b600080fd5b60007fffffffff0000000000000000000000000000000000000000000000000000000082169050919050565b6109f0816109bb565b81146109fb57600080fd5b50565b600081359050610a0d816109e7565b92915050565b600060208284031215610a2957610a286109b6565b5b6000610a37848285016109fe565b91505092915050565b60008115159050919050565b610a5581610a40565b82525050565b6000602082019050610a706000830184610a4c565b92915050565b600073ffffffffffffffffffffffffffffffffffffffff82169050919050565b6000610aa182610a76565b9050919050565b610ab181610a96565b8114610abc57600080fd5b50565b600081359050610ace81610aa8565b92915050565b6000819050919050565b610ae781610ad4565b8114610af257600080fd5b50565b600081359050610b0481610ade565b92915050565b60008060408385031215610b2157610b206109b6565b5b6000610b2f85828601610abf565b9250506020610b4085828601610af5565b9150509250929050565b610b5381610ad4565b82525050565b6000602082019050610b6e6000830184610b4a565b92915050565b600080600060608486031215610b8d57610b8c6109b6565b5b6000610b9b86828701610abf565b9350506020610bac86828701610abf565b9250506040610bbd86828701610af5565b9150509250925092565b600060208284031215610bdd57610bdc6109b6565b5b6000610beb84828501610af5565b91505092915050565b610bfd81610a96565b82525050565b6000602082019050610c186000830184610bf4565b92915050565b600060208284031215610c3457610c336109b6565b5b6000610c4284828501610abf565b91505092915050565b600082825260208201905092915050565b7f4552433136353a20496e76616c696420496e7465726661636500000000000000600082015250565b6000610c92601983610c4b565b9150610c9d82610c5c565b602082019050919050565b60006020820190508181036000830152610cc181610c85565b9050919050565b7f4572726f72202d20617070726f76616c2063757272656e74206f776e65720000600082015250565b6000610cfe601e83610c4b565b9150610d0982610cc8565b602082019050919050565b60006020820190508181036000830152610d2d81610cf1565b9050919050565b7f4e6f74206f776e6572204e465400000000000000000000000000000000000000600082015250565b6000610d6a600d83610c4b565b9150610d7582610d34565b602082019050919050565b60006020820190508181036000830152610d9981610d5d565b9050919050565b6000606082019050610db56000830186610bf4565b610dc26020830185610bf4565b610dcf6040830184610b4a565b949350505050565b7f4e487b7100000000000000000000000000000000000000000000000000000000600052603260045260246000fd5b7f476c6f62616c20696e646578206973206f7574206f6620626f756e6400000000600082015250565b6000610e3c601c83610c4b565b9150610e4782610e06565b602082019050919050565b60006020820190508181036000830152610e6b81610e2f565b9050919050565b7f4f776e657220717565727920666f72206e6f6e2d657869737420746f6b656e00600082015250565b6000610ea8601f83610c4b565b9150610eb382610e72565b602082019050919050565b60006020820190508181036000830152610ed781610e9b565b9050919050565b7f496e76616c696420616464726573730000000000000000000000000000000000600082015250565b6000610f14600f83610c4b565b9150610f1f82610ede565b602082019050919050565b60006020820190508181036000830152610f4381610f07565b9050919050565b7f49742069736e74206f776e6572206f66204e4654000000000000000000000000600082015250565b6000610f80601483610c4b565b9150610f8b82610f4a565b602082019050919050565b60006020820190508181036000830152610faf81610f73565b9050919050565b7f4e487b7100000000000000000000000000000000000000000000000000000000600052601160045260246000fd5b6000610ff082610ad4565b9150610ffb83610ad4565b92508282101561100e5761100d610fb6565b5b828203905092915050565b600061102482610ad4565b915061102f83610ad4565b9250827fffffffffffffffffffffffffffffffffffffffffffffffffffffffffffffffff0382111561106457611063610fb6565b5b82820190509291505056fea26469706673582212205d61f548302143dbc5d1a063196a974853f6d788002af413d14644cdf2f341d264736f6c634300080f0033",
  "immutableReferences": {},
  "source": "// SPDX-License-Identifier: MIT\r\npragma solidity 0.8.15;\r\n\r\nimport \"./ERC721.sol\";\r\nimport \"./interfaces/IERC721Enumerable.sol\";\r\nimport \"./ERC165.sol\";\r\n\r\ncontract ERC721Enumerable is ERC721, IERC721Enumerable {\r\n    \r\n    uint256[] private _allTokens;\r\n\r\n    //mapping relacionando o seu tokenId com o seu index\r\n    mapping (uint256 => uint256) private _allTokensIndex;\r\n\r\n    //dono relacionado a uma lista de tokens que ele  proprietrio\r\n    mapping (address => uint256[]) private _ownedTokens;\r\n\r\n    //mapping registrar o index do alltokens com seu respectivo dono\r\n    mapping (uint256 => uint256) private _ownedTokensIndex;\r\n\r\n    constructor () {\r\n        _registerInterface(bytes4( keccak256('totalSupply(bytes4)') ^\r\n                            keccak256('tokenByIndex(bytes4)') ^\r\n                            keccak256('tokenOfOwnerByIndex(bytes4)')));\r\n    }\r\n\r\n    //como possui a mesma assinatura do ERC721 (que herda), precisamos sobrescrever com override\r\n    function _mint (address to, uint256 tokenId) internal override (ERC721){\r\n        super._mint(to, tokenId);\r\n        _addTokensToAllTokensEnumerations(tokenId);\r\n        _addTokensToOwnerEnumeration(to, tokenId);\r\n    }\r\n\r\n    function totalSupply() public view returns (uint256)\r\n    {\r\n        return _allTokens.length;\r\n    }\r\n\r\n    function _addTokensToAllTokensEnumerations(uint256 tokenId) private {\r\n        _allTokensIndex[tokenId] = _allTokens.length;\r\n        _allTokens.push(tokenId);\r\n    }\r\n\r\n    function _addTokensToOwnerEnumeration(address to, uint256 tokenId) private {\r\n        _ownedTokensIndex[tokenId] = _ownedTokens[to].length;\r\n        _ownedTokens[to].push(tokenId);\r\n    }\r\n\r\n\r\n    /// estas duas no esto l na documentao/site do ERC721\r\n    function tokenByIndex(uint256 index) public view returns (uint256){\r\n        require (index < totalSupply(), \"Global index is out of bound\");\r\n        return _allTokens[index];\r\n    }\r\n\r\n    function tokenOfOwnerByIndex (address to, uint256 index) public view returns (uint256) {\r\n        //require (index  < balanceOf(to) , 'Global index is out of bound');\r\n        return _ownedTokens[to][index];\r\n    }\r\n\r\n\r\n\r\n}",
  "sourcePath": "C:\\Users\\ITAUTEC\\Desktop\\SOLIDITY\\CURSO NFT MINTER\\nft-marketplace-starter-kit-main\\src\\contracts\\ERC721Enumerable.sol",
  "compiler": {
    "name": "solc",
    "version": "0.8.15+commit.e14f2714.Emscripten.clang"
  },
  "schemaVersion": "3.4.7",
  "updatedAt": "2022-06-27T16:32:29.972Z",
  "devdoc": {
    "kind": "dev",
    "methods": {},
    "version": 1
  },
  "userdoc": {
    "kind": "user",
    "methods": {
      "tokenByIndex(uint256)": {
        "notice": "estas duas no esto l na documentao/site do ERC721"
      }
    },
    "version": 1
  }
}