{
  "contractName": "KryptoBirdz",
  "abi": [
    {
      "inputs": [],
      "stateMutability": "nonpayable",
      "type": "constructor"
    },
    {
      "anonymous": false,
      "inputs": [
        {
          "indexed": false,
          "internalType": "address",
          "name": "from",
          "type": "address"
        },
        {
          "indexed": false,
          "internalType": "address",
          "name": "to",
          "type": "address"
        },
        {
          "indexed": false,
          "internalType": "uint256",
          "name": "tokenId",
          "type": "uint256"
        }
      ],
      "name": "Approval",
      "type": "event"
    },
    {
      "anonymous": false,
      "inputs": [
        {
          "indexed": true,
          "internalType": "address",
          "name": "from",
          "type": "address"
        },
        {
          "indexed": true,
          "internalType": "address",
          "name": "to",
          "type": "address"
        },
        {
          "indexed": false,
          "internalType": "uint256",
          "name": "tokenId",
          "type": "uint256"
        }
      ],
      "name": "Transfer",
      "type": "event"
    },
    {
      "inputs": [
        {
          "internalType": "bytes4",
          "name": "interfaceId",
          "type": "bytes4"
        }
      ],
      "name": "_registerInterface",
      "outputs": [],
      "stateMutability": "nonpayable",
      "type": "function"
    },
    {
      "inputs": [
        {
          "internalType": "bytes4",
          "name": "",
          "type": "bytes4"
        }
      ],
      "name": "_suportedInterfaces",
      "outputs": [
        {
          "internalType": "bool",
          "name": "",
          "type": "bool"
        }
      ],
      "stateMutability": "view",
      "type": "function",
      "constant": true
    },
    {
      "inputs": [
        {
          "internalType": "address",
          "name": "_to",
          "type": "address"
        },
        {
          "internalType": "uint256",
          "name": "tokenId",
          "type": "uint256"
        }
      ],
      "name": "approve",
      "outputs": [],
      "stateMutability": "nonpayable",
      "type": "function"
    },
    {
      "inputs": [
        {
          "internalType": "address",
          "name": "_owner",
          "type": "address"
        }
      ],
      "name": "balanceOf",
      "outputs": [
        {
          "internalType": "uint256",
          "name": "",
          "type": "uint256"
        }
      ],
      "stateMutability": "view",
      "type": "function",
      "constant": true
    },
    {
      "inputs": [
        {
          "internalType": "uint256",
          "name": "",
          "type": "uint256"
        }
      ],
      "name": "kryptoBird",
      "outputs": [
        {
          "internalType": "string",
          "name": "",
          "type": "string"
        }
      ],
      "stateMutability": "view",
      "type": "function",
      "constant": true
    },
    {
      "inputs": [],
      "name": "name",
      "outputs": [
        {
          "internalType": "string",
          "name": "",
          "type": "string"
        }
      ],
      "stateMutability": "view",
      "type": "function",
      "constant": true
    },
    {
      "inputs": [
        {
          "internalType": "uint256",
          "name": "_tokenId",
          "type": "uint256"
        }
      ],
      "name": "ownerOf",
      "outputs": [
        {
          "internalType": "address",
          "name": "",
          "type": "address"
        }
      ],
      "stateMutability": "view",
      "type": "function",
      "constant": true
    },
    {
      "inputs": [
        {
          "internalType": "bytes4",
          "name": "interfaceId",
          "type": "bytes4"
        }
      ],
      "name": "supportsInterface",
      "outputs": [
        {
          "internalType": "bool",
          "name": "",
          "type": "bool"
        }
      ],
      "stateMutability": "view",
      "type": "function",
      "constant": true
    },
    {
      "inputs": [],
      "name": "symbol",
      "outputs": [
        {
          "internalType": "string",
          "name": "",
          "type": "string"
        }
      ],
      "stateMutability": "view",
      "type": "function",
      "constant": true
    },
    {
      "inputs": [
        {
          "internalType": "uint256",
          "name": "index",
          "type": "uint256"
        }
      ],
      "name": "tokenByIndex",
      "outputs": [
        {
          "internalType": "uint256",
          "name": "",
          "type": "uint256"
        }
      ],
      "stateMutability": "view",
      "type": "function",
      "constant": true
    },
    {
      "inputs": [
        {
          "internalType": "address",
          "name": "to",
          "type": "address"
        },
        {
          "internalType": "uint256",
          "name": "index",
          "type": "uint256"
        }
      ],
      "name": "tokenOfOwnerByIndex",
      "outputs": [
        {
          "internalType": "uint256",
          "name": "",
          "type": "uint256"
        }
      ],
      "stateMutability": "view",
      "type": "function",
      "constant": true
    },
    {
      "inputs": [],
      "name": "totalSupply",
      "outputs": [
        {
          "internalType": "uint256",
          "name": "",
          "type": "uint256"
        }
      ],
      "stateMutability": "view",
      "type": "function",
      "constant": true
    },
    {
      "inputs": [
        {
          "internalType": "address",
          "name": "_from",
          "type": "address"
        },
        {
          "internalType": "address",
          "name": "_to",
          "type": "address"
        },
        {
          "internalType": "uint256",
          "name": "_tokenId",
          "type": "uint256"
        }
      ],
      "name": "transferFrom",
      "outputs": [],
      "stateMutability": "nonpayable",
      "type": "function"
    },
    {
      "inputs": [
        {
          "internalType": "string",
          "name": "_kryptobird",
          "type": "string"
        }
      ],
      "name": "mint",
      "outputs": [],
      "stateMutability": "nonpayable",
      "type": "function"
    }
  ],
  "bytecode": "0x60806040523480156200001157600080fd5b506040518060400160405280600b81526020017f4b726970746f426972647a0000000000000000000000000000000000000000008152506040518060400160405280600681526020017f4b424952445a00000000000000000000000000000000000000000000000000008152508181620000d37f068417d99438efa57c62b8a2f5c6aa9edc2f5916afbf754b62df6d6bc528f1637f01ffc9a7a5cef8baa21ed3c5c0d7e23accb804b619e9333b597f47a0d84076e2186200026060201b60201c565b620001267f13b182f4c0e5b2efbac0efe6cf6d756c8b89f4b79c5707a043ed9ea740574ee97f7feaf19471f34a12a7eaf32d5f3090aa2260ea8624dc8a138e74e0bf0f623076186200026060201b60201c565b8160019081620001379190620005b1565b508060029081620001499190620005b1565b505050620001e37f8c51fd5fcf1f456ec4eb0f32f68d83471264fe082fac12bcbfd2fa4be9eed6c77f22c82707ba960a14c7592ffb6b8cfaa073fed0048a84cc7fa41f6b5bd8e7f2e47f3a6eb71757dfc6e784c1459d26270140c2c147d95ca985c80026fc5301c3eca17f8a7e378434598edc36d108689a030cbc9d7d465de4f74c71bae1028eed6a881b1818186200026060201b60201c565b620002587f8230223f691b981717299fae9549350a0d894555723531f02108b1f522c1a7977f6da5e1284143cdd2d15038a59bde3be031250f00291d64494c12d967b3a4e0c37fc53637662700e6c65104059db8bba34439e0c32483ab7c34e3ccae52c739549518186200026060201b60201c565b50506200071b565b63ffffffff60e01b817bffffffffffffffffffffffffffffffffffffffffffffffffffffffff191603620002cb576040517f08c379a0000000000000000000000000000000000000000000000000000000008152600401620002c290620006f9565b60405180910390fd5b6001600080837bffffffffffffffffffffffffffffffffffffffffffffffffffffffff19167bffffffffffffffffffffffffffffffffffffffffffffffffffffffff1916815260200190815260200160002060006101000a81548160ff02191690831515021790555050565b600081519050919050565b7f4e487b7100000000000000000000000000000000000000000000000000000000600052604160045260246000fd5b7f4e487b7100000000000000000000000000000000000000000000000000000000600052602260045260246000fd5b60006002820490506001821680620003b957607f821691505b602082108103620003cf57620003ce62000371565b5b50919050565b60008190508160005260206000209050919050565b60006020601f8301049050919050565b600082821b905092915050565b600060088302620004397fffffffffffffffffffffffffffffffffffffffffffffffffffffffffffffffff82620003fa565b620004458683620003fa565b95508019841693508086168417925050509392505050565b6000819050919050565b6000819050919050565b6000620004926200048c62000486846200045d565b62000467565b6200045d565b9050919050565b6000819050919050565b620004ae8362000471565b620004c6620004bd8262000499565b84845462000407565b825550505050565b600090565b620004dd620004ce565b620004ea818484620004a3565b505050565b5b81811015620005125762000506600082620004d3565b600181019050620004f0565b5050565b601f82111562000561576200052b81620003d5565b6200053684620003ea565b8101602085101562000546578190505b6200055e6200055585620003ea565b830182620004ef565b50505b505050565b600082821c905092915050565b6000620005866000198460080262000566565b1980831691505092915050565b6000620005a1838362000573565b9150826002028217905092915050565b620005bc8262000337565b67ffffffffffffffff811115620005d857620005d762000342565b5b620005e48254620003a0565b620005f182828562000516565b600060209050601f83116001811462000629576000841562000614578287015190505b62000620858262000593565b86555062000690565b601f1984166200063986620003d5565b60005b8281101562000663578489015182556001820191506020850194506020810190506200063c565b868310156200068357848901516200067f601f89168262000573565b8355505b6001600288020188555050505b505050505050565b600082825260208201905092915050565b7f4552433136353a20496e76616c696420496e7465726661636500000000000000600082015250565b6000620006e160198362000698565b9150620006ee82620006a9565b602082019050919050565b600060208201905081810360008301526200071481620006d2565b9050919050565b611ea8806200072b6000396000f3fe608060405234801561001057600080fd5b50600436106100ea5760003560e01c80632f745c591161008c5780636352211e116100665780636352211e1461026f57806370a082311461029f57806395d89b41146102cf578063d85d3d27146102ed576100ea565b80632f745c59146101df5780634f6ccce71461020f57806350ee2e511461023f576100ea565b806306fdde03116100c857806306fdde031461016b578063095ea7b31461018957806318160ddd146101a557806323b872dd146101c3576100ea565b806301ffc9a7146100ef578063057e4ee61461011f578063068417d91461014f575b600080fd5b6101096004803603810190610104919061112d565b610309565b6040516101169190611175565b60405180910390f35b610139600480360381019061013491906111c6565b610370565b604051610146919061128c565b60405180910390f35b6101696004803603810190610164919061112d565b61041c565b005b6101736104f0565b604051610180919061128c565b60405180910390f35b6101a3600480360381019061019e919061130c565b610582565b005b6101ad6106fd565b6040516101ba919061135b565b60405180910390f35b6101dd60048036038101906101d89190611376565b61070a565b005b6101f960048036038101906101f4919061130c565b61071a565b604051610206919061135b565b60405180910390f35b610229600480360381019061022491906111c6565b610780565b604051610236919061135b565b60405180910390f35b6102596004803603810190610254919061112d565b6107f1565b6040516102669190611175565b60405180910390f35b610289600480360381019061028491906111c6565b610811565b60405161029691906113d8565b60405180910390f35b6102b960048036038101906102b491906113f3565b6108c2565b6040516102c6919061135b565b60405180910390f35b6102d7610979565b6040516102e4919061128c565b60405180910390f35b61030760048036038101906103029190611555565b610a0b565b005b6000806000837bffffffffffffffffffffffffffffffffffffffffffffffffffffffff19167bffffffffffffffffffffffffffffffffffffffffffffffffffffffff1916815260200190815260200160002060009054906101000a900460ff169050919050565b600a818154811061038057600080fd5b90600052602060002001600091509050805461039b906115cd565b80601f01602080910402602001604051908101604052809291908181526020018280546103c7906115cd565b80156104145780601f106103e957610100808354040283529160200191610414565b820191906000526020600020905b8154815290600101906020018083116103f757829003601f168201915b505050505081565b63ffffffff60e01b817bffffffffffffffffffffffffffffffffffffffffffffffffffffffff191603610484576040517f08c379a000000000000000000000000000000000000000000000000000000000815260040161047b9061164a565b60405180910390fd5b6001600080837bffffffffffffffffffffffffffffffffffffffffffffffffffffffff19167bffffffffffffffffffffffffffffffffffffffffffffffffffffffff1916815260200190815260200160002060006101000a81548160ff02191690831515021790555050565b6060600180546104ff906115cd565b80601f016020809104026020016040519081016040528092919081815260200182805461052b906115cd565b80156105785780601f1061054d57610100808354040283529160200191610578565b820191906000526020600020905b81548152906001019060200180831161055b57829003601f168201915b5050505050905090565b600061058d82610811565b90508073ffffffffffffffffffffffffffffffffffffffff168373ffffffffffffffffffffffffffffffffffffffff16036105fd576040517f08c379a00000000000000000000000000000000000000000000000000000000081526004016105f4906116b6565b60405180910390fd5b3373ffffffffffffffffffffffffffffffffffffffff168173ffffffffffffffffffffffffffffffffffffffff161461066b576040517f08c379a000000000000000000000000000000000000000000000000000000000815260040161066290611722565b60405180910390fd5b826005600084815260200190815260200160002060006101000a81548173ffffffffffffffffffffffffffffffffffffffff021916908373ffffffffffffffffffffffffffffffffffffffff1602179055507f8c5be1e5ebec7d5bd14f71427d1e84f3dd0314c0f7b2291e5b200ac8c7c3b9258184846040516106f093929190611742565b60405180910390a1505050565b6000600680549050905090565b610715838383610b07565b505050565b6000600860008473ffffffffffffffffffffffffffffffffffffffff1673ffffffffffffffffffffffffffffffffffffffff168152602001908152602001600020828154811061076d5761076c611779565b5b9060005260206000200154905092915050565b600061078a6106fd565b82106107cb576040517f08c379a00000000000000000000000000000000000000000000000000000000081526004016107c2906117f4565b60405180910390fd5b600682815481106107df576107de611779565b5b90600052602060002001549050919050565b60006020528060005260406000206000915054906101000a900460ff1681565b6000806003600084815260200190815260200160002060009054906101000a900473ffffffffffffffffffffffffffffffffffffffff169050600073ffffffffffffffffffffffffffffffffffffffff168173ffffffffffffffffffffffffffffffffffffffff16036108b9576040517f08c379a00000000000000000000000000000000000000000000000000000000081526004016108b090611860565b60405180910390fd5b80915050919050565b60008073ffffffffffffffffffffffffffffffffffffffff168273ffffffffffffffffffffffffffffffffffffffff1603610932576040517f08c379a0000000000000000000000000000000000000000000000000000000008152600401610929906118cc565b60405180910390fd5b600460008373ffffffffffffffffffffffffffffffffffffffff1673ffffffffffffffffffffffffffffffffffffffff168152602001908152602001600020549050919050565b606060028054610988906115cd565b80601f01602080910402602001604051908101604052809291908181526020018280546109b4906115cd565b8015610a015780601f106109d657610100808354040283529160200191610a01565b820191906000526020600020905b8154815290600101906020018083116109e457829003601f168201915b5050505050905090565b600b81604051610a1b9190611928565b908152602001604051809103902060009054906101000a900460ff1615610a77576040517f08c379a0000000000000000000000000000000000000000000000000000000008152600401610a6e9061198b565b60405180910390fd5b600a81908060018154018082558091505060019003906000526020600020016000909190919091509081610aab9190611b57565b5060006001600a80549050610ac09190611c58565b9050610acc3382610d56565b6001600b83604051610ade9190611928565b908152602001604051809103902060006101000a81548160ff0219169083151502179055505050565b8273ffffffffffffffffffffffffffffffffffffffff16610b2782610811565b73ffffffffffffffffffffffffffffffffffffffff1614610b7d576040517f08c379a0000000000000000000000000000000000000000000000000000000008152600401610b7490611cd8565b60405180910390fd5b600073ffffffffffffffffffffffffffffffffffffffff168273ffffffffffffffffffffffffffffffffffffffff1603610bec576040517f08c379a0000000000000000000000000000000000000000000000000000000008152600401610be3906118cc565b60405180910390fd5b6001600460008573ffffffffffffffffffffffffffffffffffffffff1673ffffffffffffffffffffffffffffffffffffffff1681526020019081526020016000206000828254610c3c9190611c58565b925050819055506001600460008473ffffffffffffffffffffffffffffffffffffffff1673ffffffffffffffffffffffffffffffffffffffff1681526020019081526020016000206000828254610c939190611cf8565b92505081905550816003600083815260200190815260200160002060006101000a81548173ffffffffffffffffffffffffffffffffffffffff021916908373ffffffffffffffffffffffffffffffffffffffff1602179055508173ffffffffffffffffffffffffffffffffffffffff168373ffffffffffffffffffffffffffffffffffffffff167fddf252ad1be2c89b69c2b068fc378daa952ba7f163c4a11628f55a4df523b3ef83604051610d49919061135b565b60405180910390a3505050565b610d608282610d77565b610d6981610f42565b610d738282610f8b565b5050565b600073ffffffffffffffffffffffffffffffffffffffff168273ffffffffffffffffffffffffffffffffffffffff1603610de6576040517f08c379a0000000000000000000000000000000000000000000000000000000008152600401610ddd90611dc0565b60405180910390fd5b610def8161104f565b15610e2f576040517f08c379a0000000000000000000000000000000000000000000000000000000008152600401610e2690611e52565b60405180910390fd5b816003600083815260200190815260200160002060006101000a81548173ffffffffffffffffffffffffffffffffffffffff021916908373ffffffffffffffffffffffffffffffffffffffff1602179055506001600460008473ffffffffffffffffffffffffffffffffffffffff1673ffffffffffffffffffffffffffffffffffffffff1681526020019081526020016000206000828254610ed19190611cf8565b925050819055508173ffffffffffffffffffffffffffffffffffffffff16600073ffffffffffffffffffffffffffffffffffffffff167fddf252ad1be2c89b69c2b068fc378daa952ba7f163c4a11628f55a4df523b3ef83604051610f36919061135b565b60405180910390a35050565b6006805490506007600083815260200190815260200160002081905550600681908060018154018082558091505060019003906000526020600020016000909190919091505550565b600860008373ffffffffffffffffffffffffffffffffffffffff1673ffffffffffffffffffffffffffffffffffffffff168152602001908152602001600020805490506009600083815260200190815260200160002081905550600860008373ffffffffffffffffffffffffffffffffffffffff1673ffffffffffffffffffffffffffffffffffffffff1681526020019081526020016000208190806001815401808255809150506001900390600052602060002001600090919091909150555050565b6000806003600084815260200190815260200160002060009054906101000a900473ffffffffffffffffffffffffffffffffffffffff169050600073ffffffffffffffffffffffffffffffffffffffff168173ffffffffffffffffffffffffffffffffffffffff161415915050919050565b6000604051905090565b600080fd5b600080fd5b60007fffffffff0000000000000000000000000000000000000000000000000000000082169050919050565b61110a816110d5565b811461111557600080fd5b50565b60008135905061112781611101565b92915050565b600060208284031215611143576111426110cb565b5b600061115184828501611118565b91505092915050565b60008115159050919050565b61116f8161115a565b82525050565b600060208201905061118a6000830184611166565b92915050565b6000819050919050565b6111a381611190565b81146111ae57600080fd5b50565b6000813590506111c08161119a565b92915050565b6000602082840312156111dc576111db6110cb565b5b60006111ea848285016111b1565b91505092915050565b600081519050919050565b600082825260208201905092915050565b60005b8381101561122d578082015181840152602081019050611212565b8381111561123c576000848401525b50505050565b6000601f19601f8301169050919050565b600061125e826111f3565b61126881856111fe565b935061127881856020860161120f565b61128181611242565b840191505092915050565b600060208201905081810360008301526112a68184611253565b905092915050565b600073ffffffffffffffffffffffffffffffffffffffff82169050919050565b60006112d9826112ae565b9050919050565b6112e9816112ce565b81146112f457600080fd5b50565b600081359050611306816112e0565b92915050565b60008060408385031215611323576113226110cb565b5b6000611331858286016112f7565b9250506020611342858286016111b1565b9150509250929050565b61135581611190565b82525050565b6000602082019050611370600083018461134c565b92915050565b60008060006060848603121561138f5761138e6110cb565b5b600061139d868287016112f7565b93505060206113ae868287016112f7565b92505060406113bf868287016111b1565b9150509250925092565b6113d2816112ce565b82525050565b60006020820190506113ed60008301846113c9565b92915050565b600060208284031215611409576114086110cb565b5b6000611417848285016112f7565b91505092915050565b600080fd5b600080fd5b7f4e487b7100000000000000000000000000000000000000000000000000000000600052604160045260246000fd5b61146282611242565b810181811067ffffffffffffffff821117156114815761148061142a565b5b80604052505050565b60006114946110c1565b90506114a08282611459565b919050565b600067ffffffffffffffff8211156114c0576114bf61142a565b5b6114c982611242565b9050602081019050919050565b82818337600083830152505050565b60006114f86114f3846114a5565b61148a565b90508281526020810184848401111561151457611513611425565b5b61151f8482856114d6565b509392505050565b600082601f83011261153c5761153b611420565b5b813561154c8482602086016114e5565b91505092915050565b60006020828403121561156b5761156a6110cb565b5b600082013567ffffffffffffffff811115611589576115886110d0565b5b61159584828501611527565b91505092915050565b7f4e487b7100000000000000000000000000000000000000000000000000000000600052602260045260246000fd5b600060028204905060018216806115e557607f821691505b6020821081036115f8576115f761159e565b5b50919050565b7f4552433136353a20496e76616c696420496e7465726661636500000000000000600082015250565b60006116346019836111fe565b915061163f826115fe565b602082019050919050565b6000602082019050818103600083015261166381611627565b9050919050565b7f4572726f72202d20617070726f76616c2063757272656e74206f776e65720000600082015250565b60006116a0601e836111fe565b91506116ab8261166a565b602082019050919050565b600060208201905081810360008301526116cf81611693565b9050919050565b7f4e6f74206f776e6572204e465400000000000000000000000000000000000000600082015250565b600061170c600d836111fe565b9150611717826116d6565b602082019050919050565b6000602082019050818103600083015261173b816116ff565b9050919050565b600060608201905061175760008301866113c9565b61176460208301856113c9565b611771604083018461134c565b949350505050565b7f4e487b7100000000000000000000000000000000000000000000000000000000600052603260045260246000fd5b7f476c6f62616c20696e646578206973206f7574206f6620626f756e6400000000600082015250565b60006117de601c836111fe565b91506117e9826117a8565b602082019050919050565b6000602082019050818103600083015261180d816117d1565b9050919050565b7f4f776e657220717565727920666f72206e6f6e2d657869737420746f6b656e00600082015250565b600061184a601f836111fe565b915061185582611814565b602082019050919050565b600060208201905081810360008301526118798161183d565b9050919050565b7f496e76616c696420616464726573730000000000000000000000000000000000600082015250565b60006118b6600f836111fe565b91506118c182611880565b602082019050919050565b600060208201905081810360008301526118e5816118a9565b9050919050565b600081905092915050565b6000611902826111f3565b61190c81856118ec565b935061191c81856020860161120f565b80840191505092915050565b600061193482846118f7565b915081905092915050565b7f4572726f72202d204b726970746f4269726420616c7265616479206578697374600082015250565b60006119756020836111fe565b91506119808261193f565b602082019050919050565b600060208201905081810360008301526119a481611968565b9050919050565b60008190508160005260206000209050919050565b60006020601f8301049050919050565b600082821b905092915050565b600060088302611a0d7fffffffffffffffffffffffffffffffffffffffffffffffffffffffffffffffff826119d0565b611a1786836119d0565b95508019841693508086168417925050509392505050565b6000819050919050565b6000611a54611a4f611a4a84611190565b611a2f565b611190565b9050919050565b6000819050919050565b611a6e83611a39565b611a82611a7a82611a5b565b8484546119dd565b825550505050565b600090565b611a97611a8a565b611aa2818484611a65565b505050565b5b81811015611ac657611abb600082611a8f565b600181019050611aa8565b5050565b601f821115611b0b57611adc816119ab565b611ae5846119c0565b81016020851015611af4578190505b611b08611b00856119c0565b830182611aa7565b50505b505050565b600082821c905092915050565b6000611b2e60001984600802611b10565b1980831691505092915050565b6000611b478383611b1d565b9150826002028217905092915050565b611b60826111f3565b67ffffffffffffffff811115611b7957611b7861142a565b5b611b8382546115cd565b611b8e828285611aca565b600060209050601f831160018114611bc15760008415611baf578287015190505b611bb98582611b3b565b865550611c21565b601f198416611bcf866119ab565b60005b82811015611bf757848901518255600182019150602085019450602081019050611bd2565b86831015611c145784890151611c10601f891682611b1d565b8355505b6001600288020188555050505b505050505050565b7f4e487b7100000000000000000000000000000000000000000000000000000000600052601160045260246000fd5b6000611c6382611190565b9150611c6e83611190565b925082821015611c8157611c80611c29565b5b828203905092915050565b7f49742069736e74206f776e6572206f66204e4654000000000000000000000000600082015250565b6000611cc26014836111fe565b9150611ccd82611c8c565b602082019050919050565b60006020820190508181036000830152611cf181611cb5565b9050919050565b6000611d0382611190565b9150611d0e83611190565b9250827fffffffffffffffffffffffffffffffffffffffffffffffffffffffffffffffff03821115611d4357611d42611c29565b5b828201905092915050565b7f455243203732313a206d696e74696e6720746f20746865207a65726f2061646460008201527f72657373202d2d2d2041646472657373206e6f742076616c6964210000000000602082015250565b6000611daa603b836111fe565b9150611db582611d4e565b604082019050919050565b60006020820190508181036000830152611dd981611d9d565b9050919050565b7f455243203732313a20546f6b656e20616c7265616479206d696e746564202d2d60008201527f2d204f20746f6b656e206a6120666f69206d696e7461646f0000000000000000602082015250565b6000611e3c6038836111fe565b9150611e4782611de0565b604082019050919050565b60006020820190508181036000830152611e6b81611e2f565b905091905056fea26469706673582212200185007fc4a5e020f0e7feb61df2002b70890b6db331122164b433cfa720167a64736f6c634300080f0033",
  "immutableReferences": {},
  "source": "// SPDX-License-Identifier: MIT\r\n//pragma solidity ^0.5.0;\r\npragma solidity 0.8.15;\r\n\r\nimport \"./ERC721Connector.sol\";\r\n\r\ncontract KryptoBirdz is ERC721Connector{\r\n\r\n    string[] public kryptoBird;\r\n    mapping(string => bool) private _kriptoBirdExists;\r\n\r\n    function mint (string memory _kryptobird) public {\r\n        require(!_kriptoBirdExists[_kryptobird] , \"Error - KriptoBird already exist\");\r\n        kryptoBird.push(_kryptobird);\r\n        uint _id = kryptoBird.length -1;\r\n        _mint(msg.sender, _id );\r\n        _kriptoBirdExists[_kryptobird] = true;\r\n    }\r\n\r\n    constructor () ERC721Connector(\"KriptoBirdz\", \"KBIRDZ\") {\r\n\r\n    }\r\n\r\n\r\n\r\n}",
  "sourcePath": "C:\\Users\\ITAUTEC\\Desktop\\SOLIDITY\\CURSO NFT MINTER\\nft-marketplace-starter-kit-main\\src\\contracts\\KryptoBirdz.sol",
  "compiler": {
    "name": "solc",
    "version": "0.8.15+commit.e14f2714.Emscripten.clang"
  },
  "schemaVersion": "3.4.7",
  "updatedAt": "2022-06-27T16:32:46.678Z",
  "networkType": "ethereum",
  "devdoc": {
    "kind": "dev",
    "methods": {},
    "version": 1
  },
  "userdoc": {
    "kind": "user",
    "methods": {
      "tokenByIndex(uint256)": {
        "notice": "estas duas no esto l na documentao/site do ERC721"
      }
    },
    "version": 1
  }
}